:020000040000FA
:060000005BEF1DF0120091
:020006001200E6
:0600080005EF11F01200EB
:02000E009378E5
:06001000563412A30400A7
:0100160000E9
:0100170000E8
:0600180005EF11F01200DB
:02001E000200DE
:1000200017000000E90500000100000016000000B4
:08003000E805000001000000DA
:0800380058EC12F02F0EE12636
:1000400081A0F2820501C9A709D0200E0501E95D52
:1000500004E1E96B0501C99701D0E92B0501C951FC
:10006000010B4AE0C951020B47E1C9A704D081B096
:10007000FCD7F282FAD7F298040EE66E730EC3EC48
:1000800011F0E66A030EABEC14F0020F0101006FF1
:100090007F0E005D27E2200E34EC15F00501C983C8
:1000A000C995C991010EDF6E01010051D880DF545E
:1000B00015E3DF50116A000F106E030E112210C0FD
:1000C000E6FF11C0E6FFDAEC0BF0E552E552E66E12
:1000D0000BEC15F0BFEC11F0DF2AE6D70501010E9D
:1000E000D56F05D0010E3FEC14F00501C991F288DF
:1000F000E66A730EC3EC11F00501C9A3E5EF06F043
:10010000CC0E01010215E9EC12F0DB50880A33E055
:10011000440A0EE0400A0AE0440A06E0480A02E007
:10012000880A2BE1080E28D0120E26D0120EDF6EA0
:10013000180EDF6E010EF36E040EF3CFDBFF030E1D
:10014000DB6A5FEC14F012E2030EDB50060FB9EC31
:1001500011F0EFCF10F0030EDB509DEC12F0105CAD
:1001600002E0040EDB6A030EDB2AEBD7040EDB5041
:1001700004E1E4EF06F00C0EDF6E400E0101011504
:100180000AE0010EDB500C0B06E0010EDB50C00B49
:1001900002E0020EDF5E020E01C1DBFF0501DA9D07
:1001A000D950020FF3EC14F0EF50070B030A01E1F2
:1001B000C3D3030A01E11ED3010A02E0E2EF06F015
:1001C000020ECCEC13F0050EEFCFDBFF030ECCECF0
:1001D00013F0060EEFCFDBFF040ECCEC13F0070E8E
:1001E000EFCFDBFF050ECCEC13F0080EEFCFDBFFFB
:1001F000F1EC15F0D950050FF3EC14F0FF0EEE18EA
:100200004BE1FF0EED1848E1D950070FF3EC14F065
:10021000FF0EEE1841E1FF0EED183EE10BEC15F07C
:10022000EF50000801E39FD042EC13F010E1D951E8
:1002300011180DE10B0EDBCF12F00C0EDBCF13F01B
:10024000D651121804E1D751131801E18CD00D0ECC
:10025000DFCFDBFF0BEC15F0EF06030E0101005DB5
:10026000F36E0D0E41EC12F00AE20D0EDBCFF3FF40
:10027000DB2AF3506EEC16F02EEC16F0EED70501EB
:10028000CFEC13F0C3EC16F0B4EC16F0C7EC13F09F
:10029000880E92EC14F067D0050EDBCF10F0060E3E
:1002A000DBCF11F0D851101801E087D2D9511118C5
:1002B00001E083D2070EDBCF12F0080EDBCF13F084
:1002C000D651121801E079D2D751131801E075D236
:1002D00038EC15F0040B47E04AEC16F0020EEF6E16
:1002E000060EEDEC15F0070EEDEC15F0080EEDEC3A
:1002F00015F0090EEDEC15F09CEC15F00A0EEDEC86
:1003000015F0ABEC16F0300EEF6ECC0E01010215BD
:10031000CC0A27E0440A0CE0400A08E0440A06E060
:100320000C0A02E0880A1FE1080E1CD0120E1AD037
:10033000DF04B9EC11F00C0EEFCFDBFF020E32EC54
:1003400016F00B0EEFCFDBFF0A0E05C1DBFF090E27
:1003500004C1DBFF010EE66E04EC13F04BEC13F06E
:1003600002D0180EDF6E0B0EB9EC16F001E014D2BD
:100370000C0EB9EC16F0300801E10ED2F1EC15F0DC
:10038000B9EC16F0110A01E1D2D1010A01E164D100
:10039000030A01E14CD1010A01E1BCD0330A01E1B9
:1003A00081D0010A02E0E2EF06F00B0EDBCF10F085
:1003B0000C0EDBCF11F00501D65110180BE1D7510F
:1003C000111808E142EC13F005E1D951111802E1CE
:1003D000E2EF06F0750EE66E380ED8EC11F0A4ECE4
:1003E00015F0010EF36E100EF3CFDBFF0F0EDB6A7C
:1003F000080EF36E0F0E41EC12F011E20F0E8FECAF
:1004000012F0EFCF10F00F0EDB509DEC12F0105CED
:1004100003E0100EDB6A03D00F0EDB2AE9D70501DB
:10042000E4EC15F0210ECAEC15F0100EDB5034E1AF
:1004300097EC0FF0E76E0E0EBFEC12F024E00E0EFC
:100440003FEC16F0EF50080B1AE00E0EDB5059ECA3
:1004500016F0050156EC16F0010E06EC16F056ECFF
:1004600016F0020E06EC16F056EC16F0020ED4EC66
:1004700011F0010E06EC16F097EC16F00FD0440EBA
:10048000E66E380E03D02B0EE66E380ED8EC11F067
:100490000501126BE2EF06F09CEC15F0E66A04EC45
:1004A00013F0A5D1A4EC15F0150ECCEC13F0EFCFA2
:1004B0000FF5160ECCEC13F0EFCF10F5170ECCECB9
:1004C00013F0EFCF0DF5180ECCEC13F0EFCF0EF5C7
:1004D00005012D0E0C6F0DC510F00EC511F00B0EA1
:1004E000DB50101811E10C0EDB5011180DE10FC597
:1004F00012F010C513F0090EDB50121805E10A0EB8
:10050000DB50131801E10C830DAF0C8DC3EC0FF021
:10051000E2EF06F0020EE66E380ED8EC11F005019F
:10052000AEA36AD0AEA7E2EF06F0110EDB6A080EAA
:10053000F36E110E41EC12F009E2110E47EC14F0CB
:10054000110E51EC14F0110EDB2AF1D7140EDB6AF8
:10055000130EDB6A080EF36E130E41EC12F009E283
:10056000130E54EC14F0130E87EC14F0130EDB2A68
:10057000F1D797EC0FF0E76E120EBFEC12F006E029
:10058000010EF36E140EF3CFDBFF06D0DBEC0AF0A6
:10059000E76E120EE7CFDBFF120EDB50FF0802E121
:1005A000E2EF06F0120E72EC16F0AE93140EDB5072
:1005B00002E0E2EF06F0120E3FEC16F0370EEF6E9F
:1005C000130EDB6A080EF36E130E41EC12F001E31A
:1005D000F9D3130E54EC14F0120EDB50AFEC16F0FE
:1005E000E9CF10F0EACF11F0130E20EC13F0BFECBE
:1005F00011F0130EDB2AE6D7AE83AE95AE87E50E7B
:10060000E66E370ED8EC11F00BEC16F0150EDB6A27
:10061000080EF36E150E41EC12F031E2150E47ECA8
:1006200014F0150E51EC14F0150EDB2AF1D705016C
:10063000AE93AE81160EDB6A080EF36E160E41EC19
:1006400012F001E3BFD3160E47EC14F0160E51EC76
:1006500014F0160EDB2AF0D70501AEB315D00BEC63
:1006600016F0170EDB6AB1EC14F009E2170EF7EC86
:1006700014F0170E51EC14F0170EDB2AF4D7050115
:10068000AE83AE97AE919ED3AEB79CD3080EB9ECB5
:1006900016F0B05D06E1090EB9EC16F0B15D01E1AE
:1006A00091D3B051B1111FE1170EDB6AB1EC14F018
:1006B00008E227EC14F0170E87EC14F0170EDB2A73
:1006C000F5D71BEC16F0B2C50DF5B3C50EF596ECDB
:1006D00012F003E0B6EC14F028D02D0E0C6F0DBF15
:1006E00024D00C8D22D0CE0EE66E370ED8EC11F051
:1006F0000501E4EC15F0110EEF6E170EDB6AB1EC9C
:1007000014F007E227EC14F097EC16F0170EDB2A32
:10071000F6D71BEC16F0A3EC13F0B2C5EFFFA3EC79
:1007200013F0B3C5EFFFFDEC14F0AE8333D0180E19
:10073000DB6A080EF36E180E41EC12F009E2180E97
:10074000F7EC14F0180E87EC14F0180EDB2AF1D732
:1007500005012D0E0C6F150EB9EC16F0800B01E1A2
:100760000C8D150ECCEC13F0EFCF0DF5160ECCEC76
:1007700013F0EFCF0EF596EC12F003E0B6EC14F0A8
:1007800004D02D0E0C6F0DAF0C8DC3EC0FF00501D6
:10079000AF6FAE93AE8116D30A0EDF240501136F3F
:1007A000146B000E1327010E14230D0EDF2401011C
:1007B000005D0501156FDA8D05D30BEC15F0EF0622
:1007C000030E0101005DDF5C06E223EC14F0EF5044
:1007D0002EEC16F0F5D7010EE66E070EDBCFE6FF26
:1007E000080EDBCFE6FF050EDBCFE6FF060E4BEC77
:1007F00013F0E8D2030E01010715E76E1D0EE7CFD7
:10080000DBFF010EF36E1D0EDB5004E0D890F336D3
:10081000E806FCE1F350E76E1E0EE7CFDBFF4D0E5E
:1008200001010C5D06E1065104E11E0EDB500501DD
:10083000AC131F0E0EC1DBFF200EDB6A080EF36E39
:10084000200E41EC12F024E2D9501F0FF3EC14F00B
:10085000EF50010B07E0200EB3EC12F01E0EDB5040
:10086000EF120CD01E0EDB5002E0000E01D0010E84
:10087000106E200EB3EC12F01050EF161F0EDBCFEF
:10088000F3FFF390F342F3CFDBFF200EDB2AD6D742
:100890000501DAA197D204C10FF505C110F506C113
:1008A0000DF507C10EF5E66A66EC0FF0E552E76E4E
:1008B000210EBFEC12F006E1DBEC0AF0E76E210E30
:1008C000E7CFDBFF23EC14F0EF50FF0801E07AD212
:1008D00016EC14F0DCC5EFFF210EDB500EEC15F02A
:1008E000210EDB5098EC14F00BEC15F0EF50C00B20
:1008F000E66E16EC14F0040E3BEC15F0030EDF264A
:100900004FEC16F0020E3BEC15F04FEC16F0030E18
:100910003BEC15F0040EB9EC16F0E66E16EC14F094
:10092000EE52BFEC11F0210E3FEC16F0EF9A210EC3
:100930003FEC16F0EF8046D20BEC15F0EF50080AB2
:1009400001E10CD20F0A01E1D9D1010A01E159D12B
:10095000030A01E137D2010A01E116D1070A01E1D8
:100960000CD1010A01E17AD0030A01E02BD25EEC3E
:1009700016F0A70E0C6FC3EC0FF0E76E220EBFEC63
:1009800012F001E11FD2220EDB2805010D6FD7C541
:100990000EF53EEC15F0020EAD5D3EE138EC15F0C3
:1009A000010B3AE0240E0DC5DBFF250E0EC5DBFF63
:1009B0000D6B010EF36E230EF3CFDBFF080EF36E0B
:1009C000230E41EC12F01EE2230EDBCF0EF55DECA0
:1009D00013F0260EBFEC12F012E105010D6B230E91
:1009E000DBCF0EF5010EF36E230EDB5004E0D89042
:1009F000F336E806FCE1F3500501AC1303D0230EF7
:100A0000DB2ADCD7230EDB50080806E1240EDBCFFF
:100A10000DF5250EDBCF0EF50501AF0E0C6F38EC92
:100A200015F0080B080802E10C8D01D00D8FC3EC06
:100A30000FF0E76E220EE7CFDBFF0101020E7F6FA2
:100A40000DC580F10EC581F1826B0501040E126F98
:100A5000220EDBCFE6FFE5EC0EF0D1D0030EB9ECB1
:100A600016F067E1DF28B9EC11F0EFCFD6F5020EF2
:100A7000CCEC13F0EFCFD7F5D6511EE1D75103E1FF
:100A8000818E819C02D0818C819E819AB90EE66E06
:100A9000370ED8EC11F00501010EAD6F030ED7151E
:100AA000106E010E105204E0E846FE0B1006FCE149
:100AB000010F0501AC6F09D0819E818AA40EE66EFC
:100AC000370ED8EC11F00501AD6B24EC16F08B0E4F
:100AD000E66E370E35EC16F06FEC1CF0E552870E23
:100AE000E66E370ED8EC11F00501DA85DA93EF0ED9
:100AF0000C6F5EEC16F0D65103E10D6B0E6B03D05C
:100B0000D7C50EF50D6B3EEC15F0C3EC0FF00501EB
:100B1000DD6F2CEC0CF0670EE66E370ED8EC11F0A2
:100B20006AEC14F0E668DEEC13F0E66E51EC1CF0B3
:100B30000CD0DD69D869D969E668030EC3EC11F001
:100B4000E668050EE66E85EC0BF0E552E552270EE1
:100B5000DB6A280EDB6A270EDBCF10F0280EDBCF16
:100B600011F0100E105C270E115801E32BD1270E47
:100B7000DB2A280EF0E3DB2AEED7040EE66E370EF2
:100B8000E66E51EC1CF03AD0CC0E01010215880A39
:100B900019E0440A01E116D1400A01E113D1440AE7
:100BA00005E0480A01E10ED1880A0CD1AAEC13F045
:100BB00075EC13F0E76E290EBFEC12F001E102D1E3
:100BC000E66A17D004C10FF505C110F5020E32EC2C
:100BD00016F0EFCF0DF5DF04B9EC11F0EFCF0EF505
:100BE0005DEC13F0290EBFEC12F001E1EBD0010E29
:100BF000E66E290EDBCFE6FF4EEC0AF0E552E55239
:100C0000E1D0AAEC13F075EC13F0E76E2A0EBFECFE
:100C100012F001E1D7D02A0E3FEC16F0EF50800B16
:100C200001E1D0D00101230E7F6FCC0EACEC12F0AD
:100C30008269836904C584F105C585F106C586F11D
:100C400007C587F108C588F109C589F10AC58AF188
:100C50000BC58BF1D8C58CF1D9C58DF1BBEC14F067
:100C6000F5CF8EF1C1EC14F0F5CF8FF1C7EC14F095
:100C7000F5CF90F1CDEC14F0F5CF91F1D3EC14F069
:100C8000F5CF92F1D9EC14F0F5CF93F1DFEC14F03D
:100C9000F5CF94F1E5EC14F0F5CF95F1080E966FD1
:100CA0002A0EDB50AFEC11F0EFCF97F12A0EDB509C
:100CB00042EC16F0EFCF98F14DEC14F0EE50ED1041
:100CC00003E1996B9A6B04D0D6C599F1D7C59AF117
:100CD0000501DC390F0B0B0F01019B6F4DEC14F07C
:100CE000EFCF9CF14DEC14F0C6EC16F0EFCF9DF178
:100CF00005011F0E126F010EE66E2DD0DAA562D02F
:100D0000AD5160E001017F6B800EACEC12F0D8C5F4
:100D100082F1D9C583F1D6C584F1D7C585F186693D
:100D20000F0E876F020E0501AD5D02E10101878D97
:100D3000DBEC0AF0FF0802E00101878F0101886BFC
:100D4000896B4D0E8A6F100E8B6FACC58CF105014F
:100D50000E0E126FE66AF2EC0AF033D0DAAB32D044
:100D60005EEC16F0DF2A23EC14F0EFCF0FF523EC46
:100D700014F0EFCF10F523EC14F0EFCF0DF523ECCA
:100D800014F0EFCF0EF5EF0E0C6FC3EC0FF0050172
:100D9000DD6FFF0EDD5D16E00FC5D8F510C5D9F586
:100DA000DA9BDA85DF2A23EC14F0EFCFD6F523ECBB
:100DB00014F0EFCFD7F5F3EC13F0E66E85EC0BF003
:100DC000E552E5520501DAADE9DB02EC1DF004C0A5
:100DD0001EF505C01FF506C020F507C021F5160E4B
:100DE000E96E050EEA6EEE500501045C1A6FEE50D6
:100DF00005581B6FEE5006581C6FEE5007581D6FBC
:100E0000DA51010B03E1DA51200B3FE0010E225DC4
:100E10000DE238EC13F010E20FEC13F00501225153
:100E2000222BF2EC12F00501DA9706D038EC13F021
:100E300003E2DA91DA9BDA87DAA111D0DAB70FD0C0
:100E40000101030E7F6F080E14EC15F0070E866F7C
:100E50000501080E126FBAEC12F00501DA87DAAB61
:100E600008D1DAB706D10101030E7F6FC80E14EC6A
:100E700015F026EC12F0060E906F0501120E126F9F
:100E8000BAEC12F00501DA87F4D0DAA350D0D8809A
:100E9000000E1A55000E1B55000E1C55000E1D5558
:100EA00001E3E7D0DAB9E5D0DA890101630E7F6F9B
:100EB000C80EACEC12F00501DD51AFEC11F0EFCF34
:100EC00082F1DD5142EC16F0EFCF83F1DD51C5EC3C
:100ED00015F0EFCF84F1DD5173EC14F0BBEC14F09E
:100EE000F5CF86F1C1EC14F0F5CF87F1C7EC14F023
:100EF000F5CF88F1CDEC14F0F5CF89F1D3EC14F0F7
:100F0000F5CF8AF1D9EC14F0F5CF8BF1DFEC14F0CA
:100F1000F5CF8CF1E5EC14F0F5CF8DF10101040E65
:100F20008E6F0501100E126FBAEC12F0A2D02B0ECC
:100F3000DB6A2B0EDBCFE6FF43EC15F0E552E7242E
:100F4000E76E2C0EE7CFDBFF2B0E43EC15F049E0EC
:100F50002B0EDB50020FDEEC11F0EFCF1DF52B0E48
:100F6000DB50030FDEEC11F0EFCF1CF52B0EDB5046
:100F7000040FDEEC11F0EFCF1BF52B0EDB50050F4D
:100F8000DEEC11F0EFCF1AF51A0EE96E050EEA6EDF
:100F9000EE500501F8EC12F0D80E1A5DB80E1B5990
:100FA000050E1C59000E1D591CE3E80EE66E360EA8
:100FB000D8EC11F02B0EDB50E76E2D0EE7CFDBFFE8
:100FC0007F0EF36E2C0E41EC12F0B3E22C0E7DEC92
:100FD00014F0EF50E66E2D0E7DEC14F0BFEC11F026
:100FE000EFD70501AEA345D0AEA131D0AEB741D009
:100FF000C9B73FD0CA0EE66E360ED8EC11F0050127
:101000007E0E116FE4EC15F0110EEF6E2E0EDB6A02
:10101000080EF36E2E0E41EC12F008E22E0E54EC88
:1010200014F097EC16F02E0EDB2AF2D7A3EC13F097
:10103000B0C5EFFFA3EC13F0B1C5EFFFE66AB2C590
:10104000E6FFB3C5E6FF73EC12F0AE9312D0C40E08
:10105000E96E050EEA6EEE50F8EC12F0D8806C0ED8
:101060001A55DC0E1B55020E1C55000E1D5501E2D3
:10107000AE932F0EE15C02E2E16AE552E16E63EFAE
:1010800012F058EC12F0040EE12660EC13F0FB0EA7
:10109000DBCF0DF5FC0EDBCF0EF54FEC13F019E1B5
:1010A00060EC13F005010D6B4FEC13F018E0FA0E35
:1010B000DB500FE1CCEC12F001E38FD0FF0E245D8A
:1010C00001E1242B7AEC12F0010EF36EFA0EF3CF4D
:1010D000DBFFFA0EDBCFE6FF67EC13F086D0030EE2
:1010E00005010E15E9EC12F0B3EC12F0EF506EE0D2
:1010F000010EF36EDB5004E0D890F336E806FCE115
:10110000F350106E010EB3EC12F0F350EF16EF50E7
:1011100025E09F0EE66E360ED8EC11F0FA0EDB508D
:1011200009E1CCEC12F059E2FF0E245D01E1242B21
:101130007AEC12F0CCEC12F050E2CFEC13F04FEC62
:1011400015F00EC5EFFF4FEC15F0EF6AC3EC16F08B
:10115000D6EC13F0EF6E79EC13F02CD0030ED6140E
:10116000106E010E105204E0E846FE0B1006FCE182
:10117000E76E020EE7CFDBFF030EDB6A5FEC14F0D5
:1011800031E2020EDB5005E1010EF36E020EF3CFE9
:10119000DBFF020EDBCFE6FF010EB3EC12F0EF50E7
:1011A000E552E71409E0800EE66E360EE66E51EC6D
:1011B0001CF0E552E55216D0020EDBCFF3FFF39E92
:1011C000F346F3CFDBFF030EDB2AD8D7750EE66EAE
:1011D000360ED8EC11F040DB0501126B7E0E116F5C
:1011E000FF0E03D005012451242B106E040EE15C88
:1011F00002E2E16AE552E16E105063EF12F08AEC10
:1012000014F0010EDB6867EC12F0EFCF04F5010E6D
:1012100008EC14F0EFCF05F5020E08EC14F0EFCF58
:1012200006F5030E08EC14F059EC13F008EC14F07A
:10123000EFCF08F5050E08EC14F0EFCF09F5060E18
:1012400008EC14F0EFCF0AF5070E08EC14F075EC7B
:1012500013F0DF6EFF0EDF5C04E0E66A67EC13F06C
:101260003AD0FF0E0501245D01E1242BD3EC12F0EE
:1012700024C589F105012451242BE9EC12F011EC6D
:1012800014F07DEC13F0EF684FEC15F0EF684FECC5
:1012900015F00BC5EFFF4FEC15F00AC5EFFF4FEC53
:1012A00015F009C5EFFF4FEC15F008C5EFFF4FEC47
:1012B00015F007C5EFFF4FEC15F006C5EFFF4FEC3B
:1012C00015F005C5EFFF4FEC15F004C5EFFFC9ECB5
:1012D00016F0010EDB50106E020EE15C02E2E16AD4
:1012E000E552E16E105063EF12F04CEC15F0FD0E7C
:1012F000DB502FE1CCEC12F001E38CD0FF0E245D2B
:1013000001E1242BFEEC13F0100B07E0FEEC13F0D0
:10131000080B03E1D3EC12F01AD00101040E7F6F29
:10132000020E806FFE0EDB50AFEC11F0EFCF81F1BB
:10133000FE0EDB5042EC16F01AEC15F0020E58ECE3
:1013400014F0C6EC16F0EFCF84F19EEC14F024C537
:1013500089F1FEEC13F0010B01E198D0FEEC13F0E3
:10136000080B1DE0FE0EDB50C5EC15F0EF5017E149
:10137000FE0EDB50C5EC15F0C6EC16F0EF50030B7B
:10138000106E010E105204E0E846FE0B1006FCE160
:101390000501AC1504E0FE0E3FEC16F0EF82FEEC0A
:1013A00013F0020B45E0FEEC13F0100B15E011EC0E
:1013B00014F005017DEC13F0EF684FEC15F0EF68C9
:1013C00089EC15F006EC16F094EC16F0C7EC13F06F
:1013D0001DEC14F0E66A57D0FEEC13F0400B1EE053
:1013E000FEEC13F0080B52E0090E05011225106EF9
:1013F0007F0E105C0FE2A5EC16F0A7EC13F0020EC6
:10140000A7EC13F0010E06EC16F094EC16F0FE0EAD
:10141000DB5024D0126B7E0E116F38D0FEEC13F02F
:10142000080B34E0FE0EDBCFE6FFE5EC0EF02CD02F
:10143000020E0501AD5D17E0CFEC13F0DD51C5ECF8
:1014400015F0010E19EC14F0AFEC11F0020E19ECCE
:1014500014F0AFEC11F0010E19EC14F059EC16F089
:1014600094EC16F00BD0A5EC16F006EC16F094EC0C
:1014700016F04FEC15F0EF6AC3EC16F0D6EC13F053
:10148000EF6E010EE66EAED8E55202D0FF0E03D02D
:1014900005012451242BE55263EF12F058EC12F0B1
:1014A000030EE126DF6AFE0EDB50FF086FE07F0EC1
:1014B000DF5C6CE2EBEC14F0DF24E9EC12F0EBEC17
:1014C00014F064E0DF28DEEC11F0EFCF10F0FE0E38
:1014D000DB50105C4DE1060EDF24E76E020EE7CF15
:1014E000DBFF010EDB50F36E020E41EC12F008E25E
:1014F000020E43EC15F02EEC16F0020EDB2AF1D7AB
:10150000FD0EDB5004E0FEEC13F0100B1EE011ECBE
:1015100014F005017DEC13F002EC14F089EC15F0E9
:10152000A7EC13F0010EA7EC13F0EF50E66E94EC6D
:1015300016F0EEEC12F094EC16F04FEC15F0CC0E29
:10154000EF6E4FEC15F0230E0ED00501A5EC16F052
:10155000A7EC13F0020E06EC16F094EC16F0C3ECB8
:1015600016F0D6EC13F0EF6E79EC13F0E55204D0E0
:10157000010EDB50DF6E9BD77F0E8EEC14F006E27F
:10158000010E7DEC14F083EC14F0F6D7030EE15C51
:1015900002E2E16AE552E16E63EF12F00501DA9DC5
:1015A000F298E66A010EC3EC11F00501C993C985F2
:1015B000D56BF28812004CEC15F0DF6ADF50106E2C
:1015C000116A0A0E105C000E115808E20DEC14F0BE
:1015D000010B02E1DF5003D0DF2AF0D7FF0EE55206
:1015E00063EF12F08AEC14F00501C9A704D081B0B2
:1015F000FBD7F282F9D77E0ED8801155E66E000E29
:1016000062EC16F07F0E05011225FF0FD8801155F0
:10161000E66E010E62EC16F0020EDF6E7E0E050124
:10162000115D05E2112B1151A7EC14F0F7D77E0ED6
:10163000116F010EDB6A050112518EEC14F007E206
:10164000010EDB50A7EC14F0010EDB2AF4D7126B6D
:10165000C987FE0EDB0403E1C989050E02D0C999D2
:10166000010EE66E370EC3EC11F0010E106E020E85
:10167000E15C02E2E16AE552E16E105063EF12F0C4
:10168000D9CFE6FFE1CFD9FFE652F250100B01E0CF
:10169000010EDF6EF2988B940000FD0EDBCF10F090
:1016A000FE0EDBCF11F0030ED89011321032E80499
:1016B000FBE17F0E10148009E66E45EC1DF0E5524B
:1016C000FD0EDBCF10F0FE0EDBCF11F0050ED89033
:1016D00010361136E804FBE1E00E10141009E66E36
:1016E00045EC1DF0E552FC0EDBCFE6FF45EC1DF0AE
:1016F000E55200008B84DF50E8B0F288E8A0F29851
:10170000E552E552E7CFD9FF1200D9CFE6FFE1CF8E
:10171000D9FFE652F250100B01E0010EDF6EF29895
:101720008B940000FE0EDBCFE6FF45EC1DF0E5528A
:10173000FD0EDBCFE6FF45EC1DF0E55200008B848B
:10174000DF50E8B0F288E8A0F298E552E552E7CF22
:10175000D9FF1200D9CFE6FFE1CFD9FF020EE12673
:10176000F250100B01E0010EE76E010EE7CFDBFF38
:10177000F2988B940000FE0EDBCFE6FF45EC1DF0E7
:10178000E55256EC1DF0DF6E00008B84010EDB503D
:10179000E8B0F288E8A0F298DF5000D0106E020E98
:1017A000E15C02E2E16AE552E16E1050E552E7CFFA
:1017B000D9FF1200D9CFE6FFE1CFD9FF020EE12613
:1017C000F250100B01E0010EE76E010EE7CFDBFFD8
:1017D000F2988B940000FD0EDBCF10F0FE0EDBCFF5
:1017E00011F0030ED89011321032E804FBE17F0EA5
:1017F0001016000E1116800E1010E66E45EC1DF04E
:10180000E552FD0EDBCF10F0FE0EDBCF11F0050E22
:10181000D89010361136E804FBE1E00E1014E66EA5
:1018200045EC1DF0E55256EC1DF0DF6E00008B8498
:10183000010EDB50E8B0F288E8A0F298DF5000D04B
:10184000106E020EE15C02E2E16AE552E16E1050B8
:10185000E552E7CFD9FF120012000501DAA52AD020
:10186000A3EC13F0010EEF6EA3EC13F0880EEF6EF5
:10187000EEEC12F097EC16F09AEC16F0A3EC13F0E5
:10188000EF689CEC15F04AEC16F0060EEF6EA3EC38
:1018900013F0EF689AEC16F09CEC15F02451242B11
:1018A000E66E97EC16F0ABEC16F0200ECAEC15F0D5
:1018B000BAEC12F012008AEC14F0FE0EDB50E9ECE8
:1018C00012F0DF6A0A0EDF5C51E2FE0EDB50FF0809
:1018D00003E143EC14F048D06EEC12F0010B06E08B
:1018E0000DEC14F0020B02E143EC14F06EEC12F07C
:1018F000020B06E00DEC14F0040B02E143EC14F0D3
:101900006EEC12F0040B0AE00DEC14F0080B06E18B
:101910000DEC14F0100B02E143EC14F06EEC12F03D
:10192000080B06E00DEC14F0100B02E043EC14F091
:101930006EEC12F0100B06E00DEC14F0200B02E13F
:1019400043EC14F06EEC12F0200B06E00DEC14F0FA
:10195000200B02E043EC14F06EEC12F0400BD95077
:10196000010FE96EEF50800BDF2AACD7020EE15C6D
:1019700002E2E16AE552E16E63EF12F058EC12F018
:10198000070EE12627EC13F0FF0EEE1816E1FF0E0E
:10199000ED1813E1D650E66E27EC13F0E552E75050
:1019A000EE6EED6AD750400DF350106E116A27ECC1
:1019B00013F0F350EE261150ED22DF6A0A0EDF5CC1
:1019C00018E20DEC14F0010B12E00DEC14F0200BFA
:1019D0000EE104EC15F0FD0EDB50101808E1FE0ED0
:1019E000DB50111804E1640EE66E360EA4D0DF2A37
:1019F000E5D7030EDB68DF6A010EDF5C69E2040EE7
:101A0000DB6ADF50F2EC12F0030E3FEC14F00D0E27
:101A100034EC15F0010EDB6A050E8EEC14F043E297
:101A2000800EEFEC14F0020EDB6A800EEFEC14F087
:101A3000020EDB2A7C0E33EC13F047EC15F0DB5082
:101A4000010B010808E16EEC13F004E6C80E105C0F
:101A5000000E1158EAE36EEC13F004E6C80E105CB9
:101A6000000E115809E3410E3FEC14F00C0EE66E27
:101A7000010EE66E4ADE62D0100EE66E020EABEC90
:101A800014F047EC15F0DBCF10F0040EDB50D880DB
:101A9000105406E2050EDB50E76E040EE7CFDBFFC5
:101AA000010EDB2AB9D7030EDB50F36E040E41ECB6
:101AB00012F00CE2DF501DEC15F0060EF5CFDBFF47
:101AC000040EDB50E76E030EE7CFDBFFDF2A94D76F
:101AD000060EDBCFE6FFE7D9E5524A0EE66E360E7C
:101AE000D8EC11F0410E3FEC14F00C0E34EC15F074
:101AF000400EEFEC14F0FD0EDBCFD8F5FE0EDBCF81
:101B0000D9F50501D66BD76BF3EC13F0C3EC11F0EC
:101B1000B90EE66E250EC3EC11F00501DA85020E52
:101B2000AD6F010EAC6F818E6AEC14F0060EDBCF48
:101B3000E6FFDEEC13F0E66E51EC1CF0E552E552E8
:101B4000070EE15C02E2E16AE552E16E63EF12F03A
:101B500058EC12F0080EE126FE0EDB506CE1050198
:101B6000AE91020EAD5D52E1AEB31AD04DEC12F063
:101B70000501B06BB16B030EDB6A5FEC14F00BE296
:101B8000030EDB509DEC12F0E66E030E51EC14F0E8
:101B9000030EDB2AF2D70501AE83AE91AE97CAD011
:101BA000B051B11101E1C6D0D651B01902E1D751FF
:101BB000B11901E1BFD0E4EC15F0110E62EC15F0A3
:101BC000BCEC16F0030EDB6A5FEC14F009E2030EC6
:101BD00054EC14F0030E87EC14F0030EDB2AF4D758
:101BE000B0C50DF5B1C50EF596EC12F003E0B6ECFC
:101BF00014F004D02D0E0C6F0DAF0C8DC4D905015F
:101C0000AF6FFDEC14F0AE93AE8194D04DEC12F0BA
:101C100054EC13F00501E4EC15F0100E62EC15F035
:101C2000E66A010EDBCFE6FF020EDBCFE6FF73ECC8
:101C300012F0AE837FD0FE0EDB0401E07BD0050105
:101C4000AEB331D04DEC12F053EC15F0120EEF6E36
:101C500011EC14F07DEC13F0EF68B4EC16F04FECDF
:101C600015F0EF68C7EC13F0C80E92EC14F0050104
:101C7000AE83AE854DEC12F0040EDB6A080EF36EF7
:101C8000040E41EC12F00BE2040EDB509DEC12F05E
:101C9000E66E040E51EC14F0040EDB2AEFD70501BA
:101CA000AE91AE8747D0AEB545D0070EDB6A060EC3
:101CB000DB6A080EF36E060EE4DB09E2060E54EC56
:101CC00014F0060E87EC14F0060EDB2AF2D72FD99B
:101CD000E76E050EBFEC12F006E0010EF36E070E84
:101CE000F3CFDBFF03D067DC47EC15F0050EDB50CC
:101CF000FF0820E0050E72EC16F0070EDB501AE12B
:101D0000050E3FEC16F0370EEF6E060EDB6A080E7E
:101D1000F36E060EB6DB0EE2060E54EC14F0050E62
:101D2000DB50AFEC16F0060E20EC13F028DB060EAD
:101D3000DB2AEDD7080EE15C02E2E16AE552E16ED2
:101D4000C2D3B6DBFEEC13F0010B3EE0FE0EDB501F
:101D500006DB080E06EC16F0A6D8E5520501DA837C
:101D6000DA99FE0EDBCFDDF5DB5059EC16F0030EF1
:101D700024EC15F0010E06EC16F0050E24EC15F01F
:101D8000EECFD8F5EDCFD9F50101230E7F6FC80E48
:101D9000E3DBFE0EDB50E3DA1AEC15F0010E58EC33
:101DA00014F0EFCF84F1FE0EDB5073EC14F04EDB39
:101DB000010E906F8F0E916F0501130E126F79EC6B
:101DC00013F0E5520FEC13F07ED372DB060EE12622
:101DD000DF6AEBEC14F004E0EBEC14F0DF26F9D74B
:101DE0007F0E0501D8801155FF0F116E060E1225CA
:101DF0001124106E7F0ED880DF54105C49E202EC93
:101E00001DF0020E04C0DBFF030E05C0DBFF040E55
:101E100006C0DBFF050E07C0DBFF7F0E0501D88083
:101E20001155FF0F1225060FE66E66EC16F0A7DAC5
:101E300066EC16F0FE0E3BEC14F0050E3BEC14F0D5
:101E4000040E3BEC14F0030E3BEC14F0020EDBCF5F
:101E5000EFFF7E0E115D06E2112B11517ADA83EC51
:101E600014F0F7D7010EDB6A12518EEC14F008E281
:101E7000010EDB506EDA83EC14F0010EDB2AF4D78E
:101E8000DF509CDAEF6A126B7E0E116F010E02D0EA
:101E9000126B000E106E060EE15C02E2E16AE55282
:101EA000E16E105010D304DBFE0EDBCFDCF5DB500F
:101EB0000209E66EE66A020EE66EFFDA040EE66ED0
:101EC0006D0E61DAE66A6D0E5EDAFDD24CEC15F04D
:101ED000DF6A0A0EDF5C28E20DEC14F0010B22E051
:101EE0000DEC14F0200B01E0010E106EFE0EDB5025
:101EF000105C18E104EC15F005010F51101812E107
:101F0000105111180FE1DF50C5EC15F0EECF12F0B3
:101F1000EFCF13F00D51121805E10E51131802E125
:101F2000DF5003D0DF2AD5D7FF0EE552CCD28AECA2
:101F300014F0DF6A0A0EDF5C1CE20DEC14F0010BFA
:101F400016E0010EDB6A080E8EEC14F00EE2FCECDB
:101F500013F0010E75DBEFCF10F0010EE0DAEF5059
:101F6000105C05E1010EDB2AEED7DF5003D0DF2A3B
:101F7000E1D7FF0E106E020EE15C02E2E16AE5526B
:101F8000E16E1050A0D24CEC15F005010CA502D06A
:101F9000CEDF04D00CA703D064EC14F0DF6EFF0E8C
:101FA000DF5C03E1DBEC0AF0DF6EFF0EDF5C3CE0A0
:101FB000DF50F4D90CC5EFFF05010CA52DD0FCECCA
:101FC00013F004C5EFFFFCEC13F0C6EC16F005C5EA
:101FD000EFFFFCEC13F0020EE7D906C5EFFFFCECB7
:101FE00013F0030EE1D907C5EFFFFCEC13F0040E6C
:101FF000DBD908C5EFFFFCEC13F0050ED5D909C5F8
:10200000EFFFFCEC13F0060ECFD90AC5EFFFF4DBAF
:10201000070ECAD90BC5EFFF0CA703D0DF5098EC11
:1020200014F0DF500EEC15F0DF50E5524CD240DAE0
:10203000030EE1268B9038DBFDDA06E2010EDB2A87
:10204000020EFAE3DB2AF8D78B802EDBF3DA06E206
:10205000010EDB2A020EFAE3DB2AF8D7070EE66E42
:10206000550E91D9540EFFDADF6E070EDF14FAE138
:102070001BDB26EC15F0E80E105C030E115806E28F
:10208000010EDB2A020EF5E3DB2AF3D7010E3FEC4B
:1020900014F0A9DB78D9DF6A080EDF5C09E2DF50B3
:1020A0004CDAE66EDF50E8240B0F6DD9DF2AF4D747
:1020B000020EE66EE66AE66E00DA010EE66E6AEC85
:1020C00016F0020EE66EE66EF8D9E66A030ECEDB77
:1020D000900EE66E060E6AEC16F0070EC7DB100EC9
:1020E000E66E080EC3DB010EE66E200E6AEC16F0FB
:1020F000750E49D9400EEFEC14F0600EE66E7F0EBF
:1021000042D9980EE66E310E3ED9950EE66E5D0E02
:102110003AD956DAFEE1E60EE66E650E34D90C0EBB
:10212000F66E3B0E36D9BFDEE552030EE15C02E2ED
:10213000E16AE552E16EC7D14CEC15F00501D669B4
:10214000D769D869D96973DF0501C96BCA6BC985BD
:10215000C993E6685BEC0CF0E552DF6A080EDF5CC1
:1021600009E2DF50EA6AA40FE96E050EEA22EF6A7F
:10217000DF2AF4D70501AC6BDA95DA93DA9FAE6B00
:10218000F8EC1CF005017E0E116F126B256BF292BC
:10219000F28881A0F282E55296D10501C98D8B9219
:1021A000040EE66E550EEFD8800EE66E450EEBD8A7
:1021B000600E65DB800EE66E6B0EC3EF11F078D912
:1021C000090EE1268B8202EC1DF0010E04C0DBFF3C
:1021D000020E05C0DBFF030E06C0DBFF040E07C0C6
:1021E000DBFFF2D805E3620E3EDADF6EDFACF9D733
:1021F000EBD802E3E5D9FCE10501C99D090EE15CDC
:1022000002E2E16AE552E16E5ED1D8CFE4FFE0CFB1
:10221000E4FFE46EDACFE4FFE2CFDAFFE9CFE4FFD8
:10222000EACFE4FFF6CFE4FFF7CFE4FFF5CFE4FF1A
:10223000F3CFE4FFF4CFE4FFFACFE4FF00EE00F0C9
:10224000100EE80403E3EECFE4FFFBD700EE10F03E
:10225000080EE80403E3EECFE4FFFBD7E6525ADBB7
:10226000F250100B32E0F250020B2FE0F292620EAD
:10227000FAD9DF6ED9CFE9FFDACFEAFFEF50010BD1
:1022800016E00501C9970501E96B0501C951200B4D
:1022900003E1C951100B08E0480EE5D99AD91ED9BF
:1022A000010B02E10501C9990501C99B0CD0D9CFE9
:1022B000E9FFDACFEAFFEF50080B05E00501C9A5F9
:1022C00002D0C98102D0010EDADAF2A409D0F2AA52
:1022D00007D0F2940101FE2BFE5102E10101FF2B18
:1022E000F250080B04E0F250010B01E0F290020EF4
:1022F000E15C02E2E16AE552E16EE552E7CFD9FF27
:10230000E55200EE17F0080EE80403E3E5CFEDFF19
:10231000FBD700EE0FF0100EE80403E3E5CFEDFF6E
:10232000FBD7E5CFFAFFE5CFF4FFE5CFF3FFE5CF2D
:10233000F5FFE5CFF7FFE5CFF6FFE5CFEAFFE5CF05
:10234000E9FFE5CFDAFFE550E5CFE0FFE5CFD8FFC5
:102350001000EA6A7F0FE96E010EEA221200100DEA
:10236000F3CFE9FFF4CFEAFF000EE926020EEA22DE
:102370001200EA6A000FE96E010EEA221200E5522D
:10238000E750EF6E1200E66E85EC0BF0E552E55279
:102390001200F76E0800F550E66E1200EA6ACB0FE5
:1023A000E96E050EEA221200E926000EEA2212006A
:1023B000E66E51EC1CF0E552E5521200EA6A250F78
:1023C000E96E050EEA22120002EC1DF0050E04C0B3
:1023D000DBFF060E05C0DBFF070E06C0DBFF080EA5
:1023E00007C0DBFF050EDBCF14F0060EDBCF15F0C8
:1023F000070EDBCF16F0080EDBCF17F0D950010F18
:10240000F2DAEE50145C106EEE501558116EEE506C
:102410001658126EEE501758136E050E10C0DBFFE3
:10242000060E11C0DBFF070E12C0DBFF080E13C043
:10243000DBFFD950050FD7DAD8806A0EEE54180E9C
:10244000EE54000EEE54000EEE54120086698769B9
:1024500092DAF5CF88F195DAF5CF89F198DAF5CFF0
:102460008AF19BDAF5CF8BF19EDAF5CF8CF1A1DA08
:10247000F5CF8DF1A4DAF5CF8EF1A7DAF5CF8FF194
:102480001200DBCFF4FFF350F45C1200DB50EA6A79
:10249000BC0FE96E050EEA22120002EC1DF004C02A
:1024A000C4F505C0C5F506C0C6F507C0C7F51200DE
:1024B000D9CFE6FFE1CFD9FF120040EC0BF0E55297
:1024C000E552E5521200E552E7CFD9FF1200FD0EAA
:1024D000DBCFE9FFFE0EDBCFEAFF1200D950010F80
:1024E00082DAEF501200D8C5E6FFD9C5E6FFB5DAAB
:1024F000050112000101040E7F6F020E806FFD0EB8
:10250000DBCF81F1FE0EDBCF82F1FB0EDBCF83F15F
:10251000FC0EDBCF84F112DA24C589F11200DB5006
:10252000EA6A040FE96E050EEA221200A7DACCD996
:102530000501AF6FFF0EAF5D1200F76A0E0FF66E6A
:10254000000EF7220800F55012006FEC1CF0E55267
:10255000470EE66E370E1200806F05012351232BC4
:102560000101816F1200DB50EA6AA40FE96E050ECB
:10257000EA221200E66AF2EC0AF0E5521200E7CF16
:10258000DBFFDB50FF081200170EDB50EA6AB40FC6
:10259000E96E050EEA2212000B0E05011225106EDF
:1025A0007F0E105C120001017F6B020E806F81694B
:1025B0008269836984698569866987698869120087
:1025C0000F0EE66E020EC7D9DF6EE00EDF14A00814
:1025D0001200E76E010EE7CFDBFF12002351232B21
:1025E000E66E12002ADAF550E66E5DDCE552120066
:1025F0001E5D1A6FEE501F591B6FEE5020591C6F55
:10260000EE5021591D6F12000B0EDBCFE6FF0C0EB2
:10261000DBCFE6FF090EDBCFE6FF0A0E120002EC6D
:102620001DF004C016F505C017F506C018F507C063
:1026300019F512000BDA2C0E105C010E1158120065
:10264000DB50E924E96E000EEA20EA6E1200D95050
:10265000FD0FE96EFF0EDA20EA6E1200EF50E66E13
:10266000DF50DF2A1200E66EAAEC0BF0E5521200F2
:10267000D880120E1A557A0E1B55000E1C55000EEE
:102680001D551200090EDBCF10F00A0EDBCF11F042
:10269000D85110181200DBCFE6FF2DEF15F014D93A
:1026A000DF6EFF0EDF5C1200010EDB6A020EDB6ADA
:1026B0001200EFCF07F5040E120006D9E76E1200E4
:1026C000FD0EDBCF0FF5FE0EDBCF10F51200DFCFD6
:1026D000E6FF75EC09F0E552E5521200020EDB5000
:1026E000106E116AD89011501200EFCF0BF597EFD2
:1026F0000FF0010EE66EF2EF0AF016DB140EF66E26
:10270000000E47DE11DB130EF66E000E42DE0CDB10
:10271000120EF66E000E3DDE07DB110EF66E000E99
:1027200038DE02DB100EF66E000E33DEFDDA0F0E21
:10273000F66E000E2EDEF8DA0E0EF66E000E29DEB4
:10274000F3DA4FEF15F01251122BA9EF11F05EDA08
:10275000EBDA9CD2080E86DAEFCF04F5070E82DAA8
:10276000EFCF05F5060E7EDAEFCF06F5050E7ADA25
:10277000A0DF78DAEFCF08F5030E74DAEFCF09F5B2
:10278000020E70DAEFCF0AF5DF04B9EF11F0ECDAE0
:1027900025DFCADA4FEF15F0DF24B9EF11F07FD94A
:1027A000D7C5EFFF7CD9D6C5EFFF120017DFBCDA23
:1027B00076D9880EEF6E73D9610E1200C6DEF8DD91
:1027C000380EE66E370EF4DDD9C5E6FF6FEC1CF06F
:1027D000E552D8C5E6FFB9DEEBDD220EE66E370E18
:1027E00044DAA5EF12F030DAD8C5E6FF030ECBDDF0
:1027F000D9C5E6FF050E1200DF5056D2FE0E3FDAB5
:10280000EF501200D9C5EFFF4AD9D8C5EFFF12002B
:10281000E76E5DDEE750D4EF11F0DF50BFDDEF5023
:102820001200150EF66E000EC9EF11F0210EDB50EE
:102830003BD2ECD979DADD511200CC0EEF6E2FD9F4
:10284000210EEF6E1200DF50DF2AB9EF11F0170EE4
:10285000DBCFE6FF0D0EDF24E552E7243FDAE66E1C
:1028600093DE8DDD91DEEF50E66E1200E66E020E15
:10287000E66E5DEF12F0DBCFEFFF66EF16F0E66E6F
:102880001B0EC3EF11F0DF5089DDEF901200DB501B
:10289000DF24F80F23DAE66E12002A0EDB50C5EFB4
:1028A00015F0F4DDBFEF11F0F1DDEF50E66E120030
:1028B0007BDDEFCF83F1FE0EDB50C5EF15F0080E88
:1028C000F36E030E41EF12F0010EE66E66EC0FF0B0
:1028D000E5521200640EE66E370E6ADD4E0EE66EAD
:1028E000370ED8EF11F051D951DAEFCF85F1120040
:1028F00046DD0E0EDB50AFEF11F0DBCFF3FFDB2A2E
:10290000F350DEEF11F0AADE59DDBFEF11F007DE64
:10291000BFEF11F0CDDD020EE1261200F36E010EC5
:1029200041EF12F0EF6EBBD8010EEF6EBAEF12F06E
:102930002CD90DC5EEFF0EC5EDFF1200D8C585F1EF
:10294000D9C586F1D6C587F1D7C588F1120001DD5A
:1029500085DE62EF16F0E66EDAEC0BF0E552E5523A
:102960001200080EF36E170E41EF12F0AF5116DD94
:10297000EFCF0CF512000E0EF66E000EF76E08008B
:1029800012000F0EF66E000EF76E08001200100E09
:10299000F66E000EF76E08001200110EF66E000EB5
:1029A000F76E08001200120EF66E000EF76E0800A9
:1029B0001200130EF66E000EF76E08001200140ED1
:1029C000F66E000EF76E08001200150EF66E000E81
:1029D000F76E08001200DF50F1DCEF501200E66ED7
:1029E0007D0EC3EF11F0E96EDACFEAFF1200DB5083
:1029F000DF240D0F73D9E66E1200E66AB0C5E6FF5C
:102A0000B1C5E6FF73EF12F0DF50A9DCEECF10F096
:102A1000EFCF11F01200DF50B9EF11F0A0DC0FC5BD
:102A2000EEFF10C5EDFF120097DD826983698469AE
:102A300085691200EFCF82F129D1F76A0C0FF66E8B
:102A40003B0EF722080012009EDC20D1010EDBCFE6
:102A500010F0020EDBCF11F0120041EC08F0106E06
:102A6000050EE15E10501200E66E010EC3EF11F08C
:102A7000DF286EEF16F098DCBFEF11F0D8C50FF528
:102A8000D9C510F51200DB5099DCEF501200E76E4B
:102A9000050EE7CFDBFF12000BDDE65212001151ED
:102AA0001107A9EF11F0050156D9EF6A43D94BDEA2
:102AB000EF6849DEEF683ED92451242BE66E37D902
:102AC000ABEF16F0EF6E0E0EF66E000E62DC2FD935
:102AD0000F0EF66E000E5DDC2AD9100EF66E000E9B
:102AE00058DC25D9110EF66E000E53DC20D9120EDB
:102AF000F66E000E4EDC1BD9130EF66E000E49DC8E
:102B000016D9140EF66E000E44DC11D98ADE97EF4A
:102B100016F0FE0EDB5023D9070E13D9060E11D97D
:102B2000050E0FD9040E0DD9030E0BD9020E09D9CB
:102B3000010E0DDE080E120006DED8C5EFFF03DE23
:102B4000D9C5EFFFBCEF16F00D0E26DEEFCF04F572
:102B50000E0E22DEEFCF05F50F0E1EDEEFCF06F5CF
:102B6000100E1ADEEFCF07F5110E16DEEFCF08F5C7
:102B7000120E12DEEFCF09F5130E0EDEEFCF0AF5BF
:102B8000140E0ADEEFCF0BF51200AFEC11F0020EBF
:102B9000D4EF11F0EF6ED7DD04C5EFFFD4DD05C52E
:102BA000EFFFD1DD06C5EFFFCEDD07C5EFFFCBDDC3
:102BB00008C5EFFFC8DD09C5EFFFC5DD0AC5EFFF9A
:102BC000C2DD0BC5EFFF12000B0E126FE850122B87
:102BD000A9EC11F0EF6AA3EF13F0CBD8E66E97EFF4
:102BE00016F0060ED9DD090EEFCFDBFF070ED4DDA0
:102BF0000A0EEFCFDBFF080ECFDD0B0EEFCFDBFFB2
:102C0000090ECADD0C0EEFCFDBFF1200D4EC11F081
:102C1000EF50E66E120041DC080EBEDDEFCFB0F5DE
:102C2000090EBADDEFCFB1F51200BCC5EFFFB1D888
:102C30000501AE811200080EAFDDEFCFB2F5090E2F
:102C4000ABDDEFCFB3F51200D6C5E6FF070EC3EC40
:102C500011F0D7C5E6FF090EC3EF11F0E66E0501CE
:102C600097EF16F0DF5CB9EF11F0D8EC11F0D7C593
:102C7000E6FF6FEC1CF0E552D6C5E6FF1200DB5014
:102C8000CEEF11F0AFEC11F0C6EF16F0FE0EDB50F8
:102C9000AFEF11F058DD040EEF6EA3EF13F0D3DDAC
:102CA000EF50E66E16EF14F0AFEF16F04CDD78EF54
:102CB00014F0AFEC11F0EF50E66E12004BDDEFCFE9
:102CC0000BF51200E66EE66A5DEF12F0DF50DF2AC8
:102CD000DEEF11F0CBDD800EE66E1200B9EC11F0E4
:102CE000EF501200DBCFAFF5DEDE130EEF6E99DD95
:102CF00004DDEF68D4DEEF68D2DEC3C5EFFFCFDEC0
:102D0000C2C5EFFFCCDEC1C5EFFFC9DEC0C5EFFF16
:102D1000C6DEBFC5EFFFC3DEBEC5EFFFC0DEBDC56B
:102D2000EFFFBDDE15EF16F0BADEBFEF11F00BDDE1
:102D3000BFEF11F008DDEF6806DDEF6804DDEF6836
:102D4000120005DD080ED4EF11F029DDFE0EDB5078
:102D50001CDF010E1200F7DCEF6AA3EF13F0AFECFB
:102D600011F0080ED4EF11F09ADEEF6898DEEF68EC
:102D7000120012DDEF501200E6DCD6C5EFFFE3DCF7
:102D8000D7C5EFFF12008BDE02EF14F0010ED4EF77
:0A2D900011F0FDDC52DDBAEF12F085
:062D9A00D9CFE6FFE1CFF6
:102DA000D9FF260EE126120EDB68130EDB6A020E37
:102DB000DB6A010EDB6A38DA4AEC1CF09CEC10F09E
:102DC0002D0EE66E360E4DDAF28E80B209D080A25C
:102DD000FED70501DA8B91DAFB0EE66E350E41DA8D
:102DE0001CEC00F00501DAA55AD18186DAAD56D087
:102DF000E00EE66E350E35DA140E13C5DBFF150E48
:102E000014C5DBFF050174DACCDA132B1423EF5061
:102E100037E0120A3DE16CDAEF50E80A13E0DC0A11
:102E20003BE166DAEF50550A08E0550A04E0FF0A74
:102E300033E1818431D081942FD08174BF0EE66E4E
:102E4000350E29D0960EE66E350E0BDA030E05010F
:102E5000155DE76E130EE7CFDBFF130EDBCFF3FF3D
:102E6000DB06F350000908E0050142DAEF50E66E98
:102E70006FEC1CF0E552F1D7930EE66E350E0BD0D9
:102E800090DAEF50300A08E1760EE66E350E03D088
:102E90004E0EE66E350EE5D9CEEC0AF0020EDB04DE
:102EA00018E10501AEB315D0020EDB6AAEA10AD05F
:102EB00081823D0EE66E350ED4D9120EAFC5DBFF12
:102EC0002ADA06D08192120EDB68250EE66E350EE8
:102ED000C8D980B445D0040EDB5062E1010EF36E18
:102EE000040EF3CFDBFFFE0EE66E340E45DA340E31
:102EF000B4D9550EEF6E120EDB50FF080CE0E66AF7
:102F0000120EDBCFE6FF75EC09F0E552E552DE0E5E
:102F1000E66E340E15D005010D690E69E66A0DC521
:102F2000E6FF0EC5E6FFD8C5E6FFD9C5E6FF41ECD2
:102F300008F0106E050EE15E10509F0EE66E340E26
:102F400090D902EC1DF00A0E04C0DBFF0B0E05C089
:102F5000DBFF0C0E06C0DBFF0D0E07C0DBFF20D031
:102F600002EC1DF0170E04C0DBFF180E05C0DBFFDE
:102F7000190E06C0DBFF1A0E07C0DBFF170EDBCFF2
:102F800014F0180EDBCF15F0190EDBCF16F01A0E69
:102F9000DBCF17F0D9500A0F6AD902E2040EDB6AC0
:102FA00080B228D0030EDB5045E1010EF36E030E14
:102FB000F3CFDBFF780EE66E340E53D9010EF36EBD
:102FC000020EF3CFDBFF5F0EE66E340E4AD9E66ADF
:102FD000A8EC0DF0E55202EC1DF0060E04C0DBFF7C
:102FE000070E05C0DBFF080E06C0DBFF090E07C099
:102FF000DBFF20D002EC1DF01B0E04C0DBFF1C0E1B
:1030000005C0DBFF1D0E06C0DBFF1E0E07C0DBFF89
:103010001B0EDBCF14F01C0EDBCF15F01D0EDBCF2B
:1030200016F01E0EDBCF17F0D950060F20D902E2A2
:10303000030EDB6A8050080B2DE1050EDB502AE100
:10304000010EF36E050EF3CFDBFF380EE66E340E85
:1030500093D9E80E7CD97BD97AD9EF6E0501930E0E
:10306000046F780E056F560E066F340E076F120E42
:10307000086FA30E096F040E0A6F0B6B040EE66E49
:10308000050EE66EFFEC08F0E552E552F70EE66E2F
:10309000330EE7D880A6A4D6050EDB6AA1D68196AA
:1030A000DA51010B01E09CD6DA51020B01E098D60F
:1030B000DA51200B01E094D61F0EDB68210EDB6A8B
:1030C000200EDB6A0A0EF36E200EDBCFF4FFF35006
:1030D000F45C2CE229D9010B26E026D9200B23E150
:1030E000F0D8020EE926000EEA22EF504D081BE14F
:1030F000E8D8040EE926000EEA22EF50800B13E018
:10310000E0D8EE52EFCF10F0210EDB50105C0BE355
:10311000200EDB50E76E1F0EE7CFDBFFD2D8EE525A
:10312000210EEFCFDBFF200EDB2ACCD71F0EDB50AA
:10313000FF084DE18050100B02E0000E01D0010E9F
:10314000106E010EDBCFF3FFDB2AF350030802E31E
:10315000000E01D0010E10102DE0470EE66E220E7B
:10316000E66EBEEC0CF0E552E552100EE66E5BEC3E
:103170000CF0E5528182E1D808D906E2220EDB2A62
:10318000230EFAE3DB2AF8D78192D7D8FED806E2DD
:10319000220EDB2A230EFAE3DB2AF8D78182CDD870
:1031A000F4D806E2220EDB2A230EFAE3DB2AF8D754
:1031B000819216D6100EE66E5BEC0CF0E552D30E43
:1031C000E66E330E4ED80501DA8197D809D6BA0ECD
:1031D000E66E330E46D81F0E9ED843D81F0EDBCFA7
:1031E000E6FFA1EC0EF0E5528184ACD8D4D806E21B
:1031F000240EDB2A250EFAE3DB2AF8D78194A2D825
:10320000CAD806E2240EDB2A250EFAE3DB2AF8D719
:10321000818498D8C0D806E2240EDB2A250EFAE372
:10322000DB2AF8D78194DCD5D190F26AF16AF06A92
:10323000010E936E8A6AFD0E8B6ED00E946EC00ED8
:10324000C76E200EC66E0F0EC16E896A92688B849F
:103250009494F292D08EF19C1200EF6E1251D6EF40
:1032600019F0E66E51EC1CF0E552E5521200E96EE1
:10327000DACFEAFFEE50145C106EEE501558116E66
:10328000EE501658126EEE501758136E0E0E10C0F8
:10329000DBFF0F0E11C0DBFF100E12C0DBFF110EA3
:1032A00013C0DBFFD9500E0FE96EDACFEAFFD880EA
:1032B000FF0EEE548F0EEE54000EEE54000EEE5440
:1032C0001200200EDB50100DF3CFE9FFF4CFEAFF20
:1032D000000EE926020EEA22080EE926000EEA2276
:1032E0001200DBCF11F0200E105C4E0E11581200B0
:1032F00058D8132B000E14231200DA870501226B15
:1033000002EC1DF004C016F505C017F506C018F54F
:1033100007C019F51200DBCFE6FF6FEC1CF0E55299
:10332000930EE66E350E1200200EDB50EA6ACB0FCC
:10333000E96E050EEA22EF501200220EDB6A230E20
:10334000DB6A1200240EDB6A250EDB6A120085DFC1
:10335000010E83DF020E81DF030E7FDF040E7DDFAF
:10336000050E7BDF060E79DF070E77DF080E75DFAF
:10337000090E73DF0A0E120074DF05010B0E126FC7
:10338000E85014D8120E2DEF19F0220EDBCF10F0FA
:10339000230E71EF19F0240EDBCF10F0250E71EF24
:1033A00019F013C5E9FF14C5EAFF1200122BEA6AEF
:0A33B0007F0FE96E010EEA22120001
:0633BA00547279696E6790
:1033C00020746F206A6F696E206E6574776F726B00
:1033D0003A2000547279696E6720746F2066696EB6
:1033E000642061207375697461626C65206E657418
:1033F000776F726B0D0A0044454255473E20456E7B
:103400007669616E646F20555345525F5245504F47
:1034100052545F54595045203A2053455249414C2B
:103420005F54595045206279204C6F6E672041648B
:1034300064726573730D0A0044454255473E20503F
:103440005553485F425554544F4E5F332050726578
:103450007373696F6E61646F202E2E2E0D0A004FFC
:1034600070656E696E6720436C7573746572205366
:103470006F636B65740D0A0044454255473E20500A
:103480005553485F425554544F4E5F31207072651A
:103490007373696F6E61646F202E2E2E0D0A0053B8
:1034A000656E64205265706F7274206279203E3EB2
:1034B00053686F727420416464726573730D0A00FF
:1034C00053656E64205265706F7274206279204C6F
:1034D0006F6E6720416464726573730D0A005365F3
:1034E0006E64205265706F72742062792048616E3C
:1034F000646C6528536F636B6574290D0A0044453D
:103500004255473E20505553485F425554544F4E04
:103510005F32207072657373696F6E61646F202E05
:103520002E2E0D0A00736F636B65742072657175C2
:10353000657374206661696C65640D0A00466F7579
:103540006E64206120736F636B65743A200044459C
:103550004255473E2052785061636B657420446544
:1035600073636F6E68656369646F20545950452EAC
:103570002E2E200D0A00476F74204D695769204197
:10358000434B20666F72206D79207061636B6574A8
:103590000D0A000D0A0044454255473E205278501E
:1035A00061636B65742053455249414C5F545950D7
:1035B0004520726563656269646F3A200D0A0052A6
:1035C000656365697665205265706F727420746FEB
:1035D00020546F67676C65204C696768740D0A003A
:1035E00044454255473E2052785061636B657420D4
:1035F00054525545202E2E2E0D0A00444542554763
:103600003E20505553485F425554544F4E5F312031
:1036100070726573696F6E61646F206E6F20737472
:10362000617274207570202E2E2E0D0A005369735E
:1036300074656D6120496E696369616C697A616462
:103640006F204F6B2E2E2E0D0A0053746172746919
:103650006E67206D79206F776E206E6574776F725C
:103660006B0D0A0050414E494420636F6E666C69D1
:1036700063740D0A006E6F20726F7574650D0A0019
:1036800073656E64696E67206974207468726F7503
:1036900067682061207369626C696E670D0A007249
:1036A0006F7574696E6720746865207061636B65FF
:1036B00074202D2D206469726563746C7920746F99
:1036C00020706172656E740D0A0073656E64696EB8
:1036D00067206F7574207365636F6E642072657305
:1036E000706F6E73650D0A00496E6469726563746C
:1036F000204D6573736167652054696D65646F75EE
:10370000740D0A004469736173736F63696174694E
:103710006F6E206E6F74696669636174696F6E0D98
:103720000A0044454255473E2053686F7274416415
:1037300064726573733A200044454255473E2050F9
:10374000414E49443A2000202E2E2E0D0A004445B9
:103750004255473E205573616E646F2043616E6130
:103760006C3A20000D0A004A6F696E20746865206B
:103770006E6574776F726B207375636365737366C0
:10378000756C6C790D0A00200D0A004445425547BE
:103790003E2053686F727420416464726573733A9B
:1037A000200D0A004920616D20616E20656E642045
:1037B0006465766963650D0A004920616D206120AA
:1037C000636F6F7264696E61746F720D0A00736566
:1037D0006E64696E67206F757420726573706F6EAA
:1037E00073650D0A00536F636B6574207761736EA8
:1037F000277420616C7265616479206F70656E0D4D
:103800000A00476F74206120503250207265717534
:103810006573742066726F6D20616E6F7468657277
:10382000206465766963652E0D0A00636F756C64AC
:103830006E27742066696E642074686520646576FE
:1038400069636500666F756E64206C6F6E672061DA
:10385000646472657373206275742073686F727428
:103860002061646472657373206E6F742076616C7E
:1038700069640D0A000D0A4555492061646472654A
:103880007373207365617263682072657175657307
:04389000740D0A00A9
:0C389400240EAC6E900EAB6EC20EAF6E38
:1038A000120047D8E652FD0EDBCFF6FFDB2AFE0EF4
:1038B000DBCFF7FF01E3DB2A0800F550DF6EDF50B6
:1038C00005E0DFCFE6FF04D8E552EDD7E55236D06C
:1038D00030D8ACA2FED7FE0EDB50AD6E2FD029D86B
:1038E000E652FE0EDB50DF6EFE0EDB380F0B0F0BC9
:1038F00029D80F0EDF1426D8E55220D01AD811D8B7
:10390000075004D80ED8035001D818D0F76AEE0F2C
:10391000F66E3A0EF7220800F550E66ED9DFE55252
:1039200012000A0E106E0C6EFE0EDBCF07F069EF70
:103930001DF0D9CFE6FFE1CFD9FF1200E552E7CF66
:10394000D9FF1200E76EFE0EE7CFDBFFDB5086EFFC
:023950001CF069
:0E3952001E0EF66E000EF76E000EF86E0501EA
:103960000900F550E36F0900F550E46F03E1E367E8
:1039700001D03DD00900F550DE6F0900F550DF6F32
:103980000900F550E06F09000900F550E96E0900E3
:10399000F550EA6E090009000900F550E16F0900D1
:1039A000F550E26F09000900F6CFE5F5F7CFE6F52F
:1039B000F8CFE7F5DEC5F6FFDFC5F7FFE0C5F8FF96
:1039C0000501E15302E1E25307E00900F550EE6E14
:1039D000E107F8E2E207F9D7E5C5F6FFE6C5F7FF2C
:1039E000E7C5F8FF0501E307000EE45BBFD712004F
:1039F000070ED56EF184F294F28AD58E0101FE6B2A
:103A0000FF6B1200D9CFE6FFE1CFD9FF040EE1260C
:103A1000F29A020EDB6A030EDB6AD650DF6E010EED
:103A2000D7CFDBFFF2A40BD00A0EDF5C08E2020E58
:103A3000DB2AFF0E0101FE5D02E1030EDB2A020E0E
:103A4000DBCFE7FF0101FE51E726020EE7CFDBFFE8
:103A5000030EDBCFE7FFFF51E726030EE7CFDBFFC7
:103A6000F28ADECF04F0DECF05F0DECF06F0DDCF48
:103A700007F0DD52DD52040EE15C02E2E16AE5523C
:0A3A8000E16EE552E7CFD9FF120016
:063A8A00D9CFE6FFE1CFF9
:103A9000D9FF9E96C69EFE0EDB50C96EC6BEFAD7F3
:103AA0009EA6FED7E552E7CFD9FF1200E66AEDDF0A
:063AB000E552C9501200AE
:0A3AB60014EE00F024EE00F0F86AB0
:103AC0000F9CA9EC1CF003EC00F0CDEC16F0FBD73A
:023AD0001200E2
:0E3AD200036A080EE76ED890073603360C50D4
:0E3AE000035C02E3036E072AE72EF7D71200FD
:023AEE00303175
:0E3AF000323334353637383941424344454687
:023AFE0000EED8
:0C3B000000F00F0EEE6AEA62FDD7120022
:043B0C00E0436F6DB6
:093B100070616E7920414243000E
:020000040030CA
:0100010006F8
:010002001FDE
:010003000AF2
:01000500807A
:010006008178
:00000001FF
