:020000040000FA
:06000000DCEF1FF012000E
:020006001200E6
:060008009EEF18F012004B
:02000E009578E3
:06001000563412A30400A7
:060018009EEF18F012003B
:02001E000200DE
:1000200031400000F80200000100000038400000EC
:08003000F502000003000000CE
:08003800D9CFE6FFE1CFD9FFAB
:10004000180EE12681A0F2820201D6A709D0200E67
:100050000201F85D04E1F86B0201D69701D0F82B9C
:100060000201D651010B62E0D651020B5FE1D6A727
:1000700004D081B0FCD7F282FAD7F298040EE66E73
:10008000730EE66E15EC10F0E552E552E66A030ECB
:10009000E66E6AEC10F0E552E552020F0101006FC6
:1000A0007F0E005D31E2200EE66E010EE66E15EC6D
:1000B00010F0E552E5520201D683D695D691010E95
:1000C000DF6E01010051D880DF541AE3DF50116A5E
:1000D000000F106E030E112210C0E6FF11C0E6FFE4
:1000E0006AEC10F0E552E552E66EDF50EA6A000F66
:1000F000E96E010EEA22E552E750EF6EDF2AE1D702
:100100000201010EE26F0AD0010EE66E1B0EE66ED2
:1001100015EC10F0E552E5520201D691F288E66A3C
:10012000730EE66E15EC10F0E552E5520201D6A30F
:1001300099EF06F0CC0E01010215E76E010EE7CF34
:10014000DBFFDB50880A40E0440A0EE0400A0AE088
:10015000440A06E0480A02E0880A38E1080E35D071
:10016000120E33D0120EDF6E180EDF6E010EF36E1C
:10017000040EF3CFDBFF030EDB6A080EF36E030EF3
:10018000DBCFF4FFF350F45C1AE2030EDB50060FF2
:10019000EA6A000FE96E010EEA22EFCF10F0030EBB
:1001A000DB50F76A0E0FF66E000EF7220800F550CE
:1001B000105C02E0040EDB6A030EDB2ADED7040EBD
:1001C000DB5004E197EF06F00C0EDF6E400E0101EC
:1001D00001150AE0010EDB500C0B06E0010EDB50AE
:1001E000C00B02E0020EDF5E020E01C1DBFF020166
:1001F000E79DD950020FE96EDACFEAFFEF50070B07
:10020000030A01E1B3D3030A01E1CBD2010A02E000
:1002100094EF06F0020EDF24EA6A000FE96E010E89
:10022000EA22050EEFCFDBFF030EDF24EA6A000FA0
:10023000E96E010EEA22060EEFCFDBFF040EDF248B
:10024000EA6A000FE96E010EEA22070EEFCFDBFF2C
:10025000050EDF24EA6A000FE96E010EEA22080E9D
:10026000EFCFDBFF060EDF24EA6A000FE96E010E16
:10027000EA22090EEFCFDBFF070EDF24EA6A000F48
:10028000E96E010EEA220A0EEFCFDBFF080EDF2433
:10029000EA6A000FE96E010EEA220B0EEFCFDBFFD8
:1002A000090EDF24EA6A000FE96E010EEA220C0E45
:1002B000EFCFDBFFD950050FE96EDACFEAFFFF0E73
:1002C000EE180FE1FF0EED180CE1D950070FE96EA3
:1002D000DACFEAFFFF0EEE1804E1FF0EED1801E1A0
:1002E00013D1050EDBCF10F0060EDBCF11F0E55178
:1002F000101802E094EF06F0E651111802E094EFB6
:1003000006F0070EDBCF12F0080EDBCF13F0E3513F
:10031000121802E094EF06F0E451131802E094EF93
:1003200006F0DF28EA6A000FE96E010EEA22EF50BC
:10033000040B01E1E9D0B251B22BEA6A7F0FE96EFA
:10034000010EEA22040EEF6EB251B22BEA6A7F0F61
:10035000E96E010EEA22020EEF6E060EDF24EA6A53
:10036000000FE96E010EEA22EF50E66EB251B22B99
:10037000EA6A7F0FE96E010EEA22E552E750EF6E5E
:10038000070EDF24EA6A000FE96E010EEA22EF5041
:10039000E66EB251B22BEA6A7F0FE96E010EEA22D5
:1003A000E552E750EF6E080EDF24EA6A000FE96EAF
:1003B000010EEA22EF50E66EB251B22BEA6A7F0FCD
:1003C000E96E010EEA22E552E750EF6E090EDF24D6
:1003D000EA6A000FE96E010EEA22EF50E66EB251B2
:1003E000B22BEA6A7F0FE96E010EEA22E552E7506E
:1003F000EF6EB251B22BEA6A7F0FE96E010EEA226C
:10040000E5C2EFFFB251B22BEA6A7F0FE96E010E2F
:10041000EA22E6C2EFFFB251B22BEA6A7F0FE96E21
:10042000010EEA22E3C2EFFFB251B22BEA6A7F0F5C
:10043000E96E010EEA22E4C2EFFF0A0EDF24EA6A47
:10044000000FE96E010EEA22EF50E66EB251B22BB8
:10045000EA6A7F0FE96E010EEA22E552E750EF6E7D
:10046000B251B22BEA6A7F0FE96E010EEA22EF6AFF
:10047000B251B22BEA6A7F0FE96E010EEA22300E0A
:10048000EF6ECC0E01010215CC0A3CE0440A0CE0F0
:10049000400A08E0440A06E00C0A02E0880A34E157
:1004A000080E31D0120E2FD0DF04EA6A000FE96E79
:1004B000010EEA220C0EEFCFDBFF020EDF5CEA6AD0
:1004C000000FE96E010EEA220B0EEFCFDBFF0A0EE2
:1004D00005C1DBFF090E04C1DBFF010EE66E0B0E4A
:1004E000DBCFE6FF0C0EDBCFE6FF090EDBCFE6FF2E
:1004F0000A0EDBCFE6FFD9EC08F0106E050EE15EC8
:10050000105002D0180EDF6E0B0EDF24EA6A000FC7
:10051000E96E010EEA22EF5001E031D10C0EDF242A
:10052000EA6A000FE96E010EEA22EF50300801E19D
:1005300026D1060EDF24EA6A000FE96E010EEA22D8
:10054000090EEFCFDBFF070EDF24EA6A000FE96E2A
:10055000010EEA220A0EEFCFDBFF080EDF24EA6A63
:10056000000FE96E010EEA220B0EEFCFDBFF090E42
:10057000DF24EA6A000FE96E010EEA220C0EEFCFCB
:10058000DBFFDF24EA6A000FE96E010EEA22EF507A
:10059000110A01E190D0300A01E0C6D30D0EDF242C
:1005A000EA6A000FE96E010EEA22EFCFA4F20E0E06
:1005B000DF24EA6A000FE96E010EEA22EFCFA5F20E
:1005C0000F0EDF24EA6A000FE96E010EEA22EFCF78
:1005D000A6F2100EDF24EA6A000FE96E010EEA228D
:1005E000EFCFA7F2110EDF24EA6A000FE96E010EC9
:1005F000EA22EFCFA8F2120EDF24EA6A000FE96EBA
:10060000010EEA22EFCFA9F2130EDF24EA6A000FEF
:10061000E96E010EEA22EFCFAAF2140EDF24EA6A95
:10062000000FE96E010EEA22EFCFABF2150EDF24C8
:10063000EA6A000FE96E010EEA22EFCFAFF2160E62
:10064000DF24EA6A000FE96E010EEA22EFCFB0F272
:10065000170EDF24EA6A000FE96E010EEA22EFCFDF
:10066000ADF2180EDF24EA6A000FE96E010EEA22ED
:10067000EFCFAEF202012D0EAC6FADC210F0AEC2E4
:1006800011F00B0EDB50101811E10C0EDB5011189D
:100690000DE1AFC212F0B0C213F0090EDB50121818
:1006A00005E10A0EDB50131801E1AC83ADAFAC8D50
:1006B0006CEC15F039D30D0EDB6A080EF36E0D0EDF
:1006C000DBCFF4FFF350F45C18E20D0EDB50DF24B7
:1006D0000D0FEA6A000FE96E010EEA22EF50E66E96
:1006E0000D0EDB50EA6AA40FE96E020EEA22E55213
:1006F000E750EF6E0D0EDB2AE0D702012D0EAC6F36
:10070000150EDF24EA6A000FE96E010EEA22EF50AF
:10071000800B01E1AC8D150EDF24EA6A000FE96E53
:10072000010EEA22EFCFADF2160EDF24EA6A000FC7
:10073000E96E010EEA22EFCFAEF2E5C2AFF2E6C2F9
:10074000B0F2010EE66EC2EC14F0E5520201C66F83
:10075000FF0EC65D09E0C651EA6AD80FE96E020EC7
:10076000EA22EFCFACF204D02D0EAC6FADAFAC8D62
:100770006CEC15F00201C66FC593C581D5D202019C
:10078000E8810A0EDF24B36FB46B000EB327010EAD
:10079000B4230D0EDF240101005D0201B56FE78D6A
:1007A000C3D2E7A1C1D204C1AFF205C1B0F206C104
:1007B000ADF207C1AEF2E66AC2EC14F0E552E76EA4
:1007C000120EE7CFDBFFDB50FF0806E133EC0FF042
:1007D000E76E120EE7CFDBFFDF50DF2AEA6A000F79
:1007E000E96E010EEA22EF50FF0801E09DD2120EE1
:1007F000DB50100DF3CFE9FFF4CFEAFF000EE9263E
:10080000020EEA22080EE926000EEA22E9C2EFFFF4
:10081000120EDB50100DF3CFE9FFF4CFEAFF000E0C
:10082000E926020EEA22AFC2EEFFB0C2EDFF120EC1
:10083000DB50100DF3CFE9FFF4CFEAFF000EE926FD
:10084000020EEA22020EE926000EEA22ADC2EEFFF7
:10085000AEC2EDFFDF50EA6A000FE96E010EEA2238
:10086000EF50C00BE66E120EDB50100DF3CFE9FF18
:10087000F4CFEAFF000EE926020EEA22080EE9266E
:10088000000EEA22040EE926000EEA22E552E750A5
:10089000EF6E030EDF26DF50DF2AEA6A000FE96EF3
:1008A000010EEA22EF50E66E120EDB50100DF3CF70
:1008B000E9FFF4CFEAFF000EE926020EEA22080E55
:1008C000E926000EEA22020EE926000EEA22E5528F
:1008D000E750EF6EDF50DF2AEA6A000FE96E010E83
:1008E000EA22EF50E66E120EDB50100DF3CFE9FF57
:1008F000F4CFEAFF000EE926020EEA22080EE926EE
:10090000000EEA22030EE926000EEA22E552E75025
:10091000EF6E040EDF24EA6A000FE96E010EEA2290
:10092000EF50E66E120EDB50100DF3CFE9FFF4CF5F
:10093000EAFF000EE926020EEA22080EE926000E62
:10094000EA22EE52E552E750EF6E120EDB50EA6AF1
:10095000D80FE96E020EEA22EF9A120EDB50EA6A15
:10096000D80FE96E020EEA22EF80DED1DF50EA6A8C
:10097000000FE96E010EEA22EF50080A01E124D1CE
:100980000A0A01E0D1D1030EDF24EA6A000FE96E02
:10099000010EEA22EF5001E0F0D0DF28EA6A000FF2
:1009A000E96E010EEA22EFCFE3F2020EDF24EA6ADB
:1009B000000FE96E010EEA22EFCFE4F2E3C2E6FF98
:1009C000070EE66E15EC10F0E552E552E4C2E6FFC4
:1009D000090EE66E15EC10F0E552E5523F0EE66E9C
:1009E0003D0EE66EE7EC1CF0E552E552E4C2E6FF90
:1009F00011EC1DF0E552E3C2E6FF11EC1DF0E552EB
:100A00003B0EE66E3D0EE66EE7EC1CF0E552E5525D
:100A10000201E785E793EF0EAC6F080EDF5CEA6A30
:100A2000000FE96E010EEA22EFCFA4F2070EDF5CA1
:100A3000EA6A000FE96E010EEA22EFCFA5F2060E78
:100A4000DF5CEA6A000FE96E010EEA22EFCFA6F240
:100A5000050EDF5CEA6A000FE96E010EEA22EFCFB5
:100A6000A7F2040EDF5CEA6A000FE96E010EEA22CB
:100A7000EFCFA8F2030EDF5CEA6A000FE96E010E09
:100A8000EA22EFCFA9F2020EDF5CEA6A000FE96EFC
:100A9000010EEA22EFCFAAF2DF04EA6A000FE96E44
:100AA000010EEA22EFCFABF2E35103E1AD6BAE6B87
:100AB00003D0E4C2AEF2AD6BE5C2AFF2E6C2B0F273
:100AC0006CEC15F00201EA6FBCEC10F01B0EE66E48
:100AD0003D0EE66EE7EC1CF0E552E552180EE66EB0
:100AE0003D0EE66EE7EC1CF0E552E552020EE66EB6
:100AF0003D0EE66EE7EC1CF0E552E552E66811ECBF
:100B00001DF0E552FB0EE66E3C0EE66EE7EC1CF0C7
:100B1000E552E552EC0EE66E3C0EE66EE7EC1CF09C
:100B2000E552E552E6C2E6FF11EC1DF0E552E5C2E2
:100B3000E6FF11EC1DF0E552FB0EE66E3C0EE66E94
:100B4000E7EC1CF0E552E552D60EE66E3C0EE66E82
:100B5000E7EC1CF0E552E552E4C2E6FF11EC1DF0B3
:100B6000E552E3C2E6FF11EC1DF0E552FB0EE66E26
:100B70003C0EE66EE7EC1CF00FD0EA69E569E66929
:100B8000E668030EE66E15EC10F0E552E552E668F5
:100B9000050EE66E15EC10F0E552E552130EDB6A19
:100BA000140EDB6A130EDBCF10F0140EDBCF11F046
:100BB000100E105C270E115801E3B6D0130EDB2A7D
:100BC000140EF0E3DB2AEED7E7ABAED0080EDF5C05
:100BD000EA6A000FE96E010EEA22EFCFA4F2070ED7
:100BE000DF5CEA6A000FE96E010EEA22EFCFA5F2A0
:100BF000060EDF5CEA6A000FE96E010EEA22EFCF13
:100C0000A6F2050EDF5CEA6A000FE96E010EEA2229
:100C1000EFCFA7F2040EDF5CEA6A000FE96E010E67
:100C2000EA22EFCFA8F2030EDF5CEA6A000FE96E5A
:100C3000010EEA22EFCFA9F2020EDF5CEA6A000F92
:100C4000E96E010EEA22EFCFAAF2DF04EA6A000F92
:100C5000E96E010EEA22EFCFABF2DF2ADF50DF2A86
:100C6000EA6A000FE96E010EEA22EFCFAFF2DF5021
:100C7000DF2AEA6A000FE96E010EEA22EFCFB0F236
:100C8000DF50DF2AEA6A000FE96E010EEA22EFCF99
:100C9000ADF2DF50DF2AEA6A000FE96E010EEA22A8
:100CA000EFCFAEF2EF0EAC6F6CEC15F00201EA6F15
:100CB000FF0EEA5D39E0AFC2E5F2B0C2E6F2E79BB3
:100CC000E785DF2ADF50DF2AEA6A000FE96E010EAE
:100CD000EA22EFCFE3F2DF50DF2AEA6A000FE96E83
:100CE000010EEA22EFCFE4F2E3C2E6FF070EE66E62
:100CF00015EC10F0E552E552E4C2E6FF090EE66E8F
:100D000015EC10F0E552E552E5C2E6FF030EE66E83
:100D100015EC10F0E552E552E6C2E6FF050EE66E70
:100D200015EC10F0E552E5520201E7BD02D024ECCB
:100D30000FF02FEC1FF004C0BEF205C0BFF206C0DA
:100D4000C0F207C0C1F2B60EE96E020EEA6EEE50B6
:100D50000201045CBA6FEE500558BB6FEE500658A6
:100D6000BC6FEE500758BD6FE751010B04E1E7512E
:100D7000200B01E1AAD0010EC25D25E2D880120E3F
:100D8000BA557A0EBB55000EBC55000EBD5528E273
:100D90002FEC1FF004C0B6F205C0B7F206C0B8F2DF
:100DA00007C0B9F20201C251C22BF76A240FF66ED6
:100DB000400EF7220800F550E66E9DEC14F0E55267
:100DC0000201E7970DD0D880120EBA557A0EBB55A6
:100DD000000EBC55000EBD5503E2E791E79BE78787
:100DE000E7A11BD0E7B719D00101030E7F6F080EF2
:100DF000806F0201C351C32B0101816F8269836936
:100E000084698569070E866F0201080EB26FE66A73
:100E100054EC0FF0E5520201E787E7ABC0D1E7B72A
:100E2000BED10101030E7F6FC80E806F0201C35156
:100E3000C32B0101816F8269836984698569866931
:100E400087690E0EF66E000EF76E0800F5CF88F17A
:100E50000F0EF66E000EF76E0800F5CF89F1100E3A
:100E6000F66E000EF76E0800F5CF8AF1110EF66EE1
:100E7000000EF76E0800F5CF8BF1120EF66E000E25
:100E8000F76E0800F5CF8CF1130EF66E000EF76EBC
:100E90000800F5CF8DF1140EF66E000EF76E080007
:100EA000F5CF8EF1150EF66E000EF76E0800F5CF39
:100EB0008FF1060E906F0201120EB26FE66A54ECCB
:100EC0000FF0E5520201E7876AD1E7A39CD0D880F2
:100ED000000EBA55780EBB55000EBC55000EBD5520
:100EE00001E35DD1E7B95BD1E7890101630E7F6F53
:100EF000C80E806F0201C351C32B0101816F020133
:100F0000EA51100DF3CFE9FFF4CFEAFF000EE92616
:100F1000020EEA22EFCF82F1EA51100DF3CFE9FF82
:100F2000F4CFEAFF000EE926020EEA22010EE926BE
:100F3000000EEA22EFCF83F1EA51100DF3CFE9FF63
:100F4000F4CFEAFF000EE926020EEA22020EE9269D
:100F5000000EEA22EFCF84F1EA51100DF3CFE9FF42
:100F6000F4CFEAFF000EE926020EEA22020EE9267D
:100F7000000EEA22010EE926000EEA22EFCF85F1EB
:100F80000E0EF66E000EF76E0800F5CF86F10F0E0E
:100F9000F66E000EF76E0800F5CF87F1100EF66EB4
:100FA000000EF76E0800F5CF88F1110EF66E000EF8
:100FB000F76E0800F5CF89F1120EF66E000EF76E8F
:100FC0000800F5CF8AF1130EF66E000EF76E0800DA
:100FD000F5CF8BF1140EF66E000EF76E0800F5CF0C
:100FE0008CF1150EF66E000EF76E0800F5CF8DF140
:100FF0000101040E8E6F0201100EB26FE66A54EC0E
:101000000FF0E552CCD0150EDB6AE7A5A8D0E7AF0C
:1010100099D0E7BDA4D0B251B22BEA6A7F0FE96E36
:10102000010EEA22630EEF6EB251B22BEA6A7F0F15
:10103000E96E010EEA22880EEF6EC351C32BE66EF5
:10104000B251B22BEA6A7F0FE96E010EEA22E55235
:10105000E750EF6EB251B22BEA6A7F0FE96E010ED4
:10106000EA22E5C2EFFFB251B22BEA6A7F0FE96EC6
:10107000010EEA22E6C2EFFFEA51100DF3CFE9FFBD
:10108000F4CFEAFF000EE926020EEA22020EE9265C
:10109000000EEA22EF50E66EB251B22BEA6A7F0FE1
:1010A000E96E010EEA22E552E750EF6EEA51100DAB
:1010B000F3CFE9FFF4CFEAFF000EE926020EEA22A1
:1010C000020EE926000EEA22010EE926000EEA22AF
:1010D000EF50E66EB251B22BEA6A7F0FE96E010E55
:1010E000EA22E552E750EF6EB251B22BEA6A7F0F67
:1010F000E96E010EEA22E3C2EFFFB251B22BEA6AB7
:101100007F0FE96E010EEA22E4C2EFFFB251B22B6B
:10111000EA6A7F0FE96E010EEA22040EEF6E010EFD
:10112000E66E54EC0FF0E5520201E79FE8912FECD8
:101130001FF004C0B6F205C0B7F206C0B8F207C08F
:10114000B9F20DD0E8B10BD0D880120EBA557A0E94
:10115000BB55000EBC55000EBD5501E2E8810201F1
:10116000C5A31DD0C5B11BD0D10EE96E020EEA6E2B
:10117000EE50BE5DBA6FEE50BF59BB6FEE50C05916
:10118000BC6FEE50C159BD6FD8806C0EBA55DC0EE5
:10119000BB55020EBC55000EBD5501E2C593180E9D
:1011A000E15C02E2E16AE552E16EE552E7CFD9FF88
:1011B0001200D9CFE6FFE1CFD9FFE652FD0EDBCF1B
:1011C000AFF2FE0EDBCFB0F2FB0EDBCFADF2FC0ECA
:1011D000DBCFAEF2010EE66EC2EC14F0E552DF6E2C
:1011E000FF0EDF5C09E0FA0EDBCFE6FFDFCFE6FFA4
:1011F00083DAE552E552C2D0FF0E0201C45D01E17F
:10120000C42B0101040E7F6F020E806FFD0EDBCF39
:1012100081F1FE0EDBCF82F1FB0EDBCF83F1FC0E02
:10122000DBCF84F1E5C285F1E6C286F1E3C287F146
:10123000E4C288F1C4C289F10201B151B107EA6A7E
:101240007F0FE96E010EEA22E4C2EFFFB151B10750
:10125000EA6A7F0FE96E010EEA22E3C2EFFFEA516C
:10126000100DF3CFE9FFF4CFEAFF000EE926020EDE
:10127000EA22020EE926000EEA22010EE926000EFD
:10128000EA22EF50E66EB151B107EA6A7F0FE96ECC
:10129000010EEA22E552E750EF6EEA51100DF3CF4E
:1012A000E9FFF4CFEAFF000EE926020EEA22020E61
:1012B000E926000EEA22EF50E66EB151B107EA6A64
:1012C0007F0FE96E010EEA22E552E750EF6EEA5118
:1012D000100DF3CFE9FFF4CFEAFF000EE926020E6E
:1012E000EA22010EE926000EEA22EF50E66EB15125
:1012F000B107EA6A7F0FE96E010EEA22E552E75074
:10130000EF6EEA51100DF3CFE9FFF4CFEAFF000EC4
:10131000E926020EEA22EF50E66EB151B107EA6A01
:101320007F0FE96E010EEA22E552E750EF6EC351DE
:10133000C32BE66EB151B107EA6A7F0FE96E010E69
:10134000EA22E552E750EF6EB151B107EA6A7F0F2A
:10135000E96E010EEA22880EEF6EB151B107EA6A1A
:101360007F0FE96E010EEA22610EEF6E010EE66E4E
:1013700054EC0FF0E5520201C451C42BE552E55282
:10138000E7CFD9FF1200D9CFE6FFE1CFD9FF020E98
:10139000E126010EDB68FD0EDBCFE9FFFE0EDBCFA1
:1013A000EAFFEFCFA4F2010EE76EFD0EDBCFE9FFFF
:1013B000FE0EDBCFEAFFE750E926000EEA22EFCF70
:1013C000A5F2020EE76EFD0EDBCFE9FFFE0EDBCFCE
:1013D000EAFFE750E926000EEA22EFCFA6F2030E5D
:1013E000E76EFD0EDBCFE9FFFE0EDBCFEAFFE75035
:1013F000E926000EEA22EFCFA7F2040EE76EFD0EFB
:10140000DBCFE9FFFE0EDBCFEAFFE750E926000E57
:10141000EA22EFCFA8F2050EE76EFD0EDBCFE9FF63
:10142000FE0EDBCFEAFFE750E926000EEA22EFCFFF
:10143000A9F2060EE76EFD0EDBCFE9FFFE0EDBCF55
:10144000EAFFE750E926000EEA22EFCFAAF2070EE4
:10145000E76EFD0EDBCFE9FFFE0EDBCFEAFFE750C4
:10146000E926000EEA22EFCFABF21AEC15F0DF6EA0
:10147000FF0EDF5C07E0E66ADFCFE6FF3DD9E5520D
:10148000E5522ED1FF0E0201C45D01E1C42B010122
:101490007F6B020E806F81698269836984698569C7
:1014A000866987698869C4C289F10201C451C42B65
:1014B000E76E010EE7CFDBFF150EF66E000EF76E3E
:1014C0000800F550E66EB151B107EA6A7F0FE96E88
:1014D000010EEA22E552E750EF6E140EF66E000E92
:1014E000F76E0800F550E66EB151B107EA6A7F0F5A
:1014F000E96E010EEA22E552E750EF6E130EF66E2A
:10150000000EF76E0800F550E66EB151B107EA6AB9
:101510007F0FE96E010EEA22E552E750EF6E120EE0
:10152000F66E000EF76E0800F550E66EB151B10789
:10153000EA6A7F0FE96E010EEA22E552E750EF6E8C
:10154000110EF66E000EF76E0800F550E66EB15102
:10155000B107EA6A7F0FE96E010EEA22E552E75011
:10156000EF6E100EF66E000EF76E0800F550E66E88
:10157000B151B107EA6A7F0FE96E010EEA22E55226
:10158000E750EF6E0F0EF66E000EF76E0800F55086
:10159000E66EB151B107EA6A7F0FE96E010EEA22E9
:1015A000E552E750EF6E0E0EF66E000EF76E080075
:1015B000F550E66EB151B107EA6A7F0FE96E010E90
:1015C000EA22E552E750EF6EB151B107EA6A7F0FA8
:1015D000E96E010EEA22EF68B151B107EA6A7F0FA6
:1015E000E96E010EEA22EF68B151B107EA6A7F0F96
:1015F000E96E010EEA22ABC2EFFFB151B107EA6A10
:101600007F0FE96E010EEA22AAC2EFFFB151B107C6
:10161000EA6A7F0FE96E010EEA22A9C2EFFFB1511B
:10162000B107EA6A7F0FE96E010EEA22A8C2EFFF56
:10163000B151B107EA6A7F0FE96E010EEA22A7C233
:10164000EFFFB151B107EA6A7F0FE96E010EEA229E
:10165000A6C2EFFFB151B107EA6A7F0FE96E010E32
:10166000EA22A5C2EFFFB151B107EA6A7F0FE96E26
:10167000010EEA22A4C2EFFFB151B107EA6A7F0F5F
:10168000E96E010EEA22EF68B151B107EA6A7F0FF5
:10169000E96E010EEA22EF68C351C32BE66EB15129
:1016A000B107EA6A7F0FE96E010EEA22E552E750C0
:1016B000EF6EB151B107EA6A7F0FE96E010EEA22BF
:1016C000CC0EEF6EB151B107EA6A7F0FE96E010EE1
:1016D000EA22210EEF6EE66AE7DBE552010EDB50EF
:1016E000106E020EE15C02E2E16AE552E16E10501A
:1016F000E552E7CFD9FF1200D9CFE6FFE1CFD9FFFE
:10170000E652FD0EDB5001E080D00B0E0201B22547
:10171000106E7F0E105C01E3DED2FF0EC45D01E1AE
:10172000C42BFE0EDB50EA6AD80FE96E020EEA22E5
:10173000EF50100B17E0FE0EDB50EA6AD80FE96E8F
:10174000020EEA22EF50080B0DE101017F6B020E41
:10175000806F81698269836984698569866987691F
:10176000886951D00101040E7F6F020E806FFE0E5A
:10177000DB50100DF3CFE9FFF4CFEAFF000EE926AE
:10178000020EEA22EFCF81F1FE0EDB50100DF3CFF7
:10179000E9FFF4CFEAFF000EE926020EEA22010E6D
:1017A000E926000EEA22EFCF82F1FE0EDB50100D8B
:1017B000F3CFE9FFF4CFEAFF000EE926020EEA229A
:1017C000020EE926000EEA22EFCF83F1FE0EDB5077
:1017D000100DF3CFE9FFF4CFEAFF000EE926020E69
:1017E000EA22020EE926000EEA22010EE926000E88
:1017F000EA22EFCF84F1E5C285F1E6C286F1E3C2C9
:1018000087F1E4C288F1C4C289F1FE0EDB50EA6AB6
:10181000D80FE96E020EEA22EF50010B01E10AD364
:10182000FE0EDB50EA6AD80FE96E020EEA22EF5094
:10183000020B01E160D2FE0EDB50EA6AD80FE96EBE
:10184000020EEA22EF50100B01E1BED1150EF66E2A
:10185000000EF76E0800F550E66E0201B151B107B7
:10186000EA6A7F0FE96E010EEA22E552E750EF6E59
:10187000140EF66E000EF76E0800F550E66EB151CC
:10188000B107EA6A7F0FE96E010EEA22E552E750DE
:10189000EF6E130EF66E000EF76E0800F550E66E52
:1018A000B151B107EA6A7F0FE96E010EEA22E552F3
:1018B000E750EF6E120EF66E000EF76E0800F55050
:1018C000E66EB151B107EA6A7F0FE96E010EEA22B6
:1018D000E552E750EF6E110EF66E000EF76E08003F
:1018E000F550E66EB151B107EA6A7F0FE96E010E5D
:1018F000EA22E552E750EF6E100EF66E000EF76E1C
:101900000800F550E66EB151B107EA6A7F0FE96E43
:10191000010EEA22E552E750EF6E0F0EF66E000E52
:10192000F76E0800F550E66EB151B107EA6A7F0F15
:10193000E96E010EEA22E552E750EF6E0E0EF66EEA
:10194000000EF76E0800F550E66EB151B107EA6A75
:101950007F0FE96E010EEA22E552E750EF6EB151BA
:10196000B107EA6A7F0FE96E010EEA22EF68B15112
:10197000B107EA6A7F0FE96E010EEA22EF68FE0EF8
:10198000DB50100DF3CFE9FFF4CFEAFF000EE9269C
:10199000020EEA22080EE926000EEA22070EE926C8
:1019A000000EEA22EF50E66EB151B107EA6A7F0FEE
:1019B000E96E010EEA22E552E750EF6EFE0EDB50B3
:1019C000100DF3CFE9FFF4CFEAFF000EE926020E77
:1019D000EA22080EE926000EEA22060EE926000E8B
:1019E000EA22EF50E66EB151B107EA6A7F0FE96E65
:1019F000010EEA22E552E750EF6EFE0EDB50100DAD
:101A0000F3CFE9FFF4CFEAFF000EE926020EEA2247
:101A1000080EE926000EEA22050EE926000EEA224B
:101A2000EF50E66EB151B107EA6A7F0FE96E010E21
:101A3000EA22E552E750EF6EFE0EDB50100DF3CFB9
:101A4000E9FFF4CFEAFF000EE926020EEA22080EB3
:101A5000E926000EEA22040EE926000EEA22EF50E3
:101A6000E66EB151B107EA6A7F0FE96E010EEA2214
:101A7000E552E750EF6EFE0EDB50100DF3CFE9FF9D
:101A8000F4CFEAFF000EE926020EEA22080EE9264C
:101A9000000EEA22030EE926000EEA22EF50E66E5F
:101AA000B151B107EA6A7F0FE96E010EEA22E552F1
:101AB000E750EF6EFE0EDB50100DF3CFE9FFF4CFD1
:101AC000EAFF000EE926020EEA22080EE926000EC1
:101AD000EA22020EE926000EEA22EF50E66EB1512C
:101AE000B107EA6A7F0FE96E010EEA22E552E7507C
:101AF000EF6EFE0EDB50100DF3CFE9FFF4CFEAFFDF
:101B0000000EE926020EEA22080EE926000EEA225D
:101B1000010EE926000EEA22EF50E66EB151B10740
:101B2000EA6A7F0FE96E010EEA22E552E750EF6E96
:101B3000FE0EDB50100DF3CFE9FFF4CFEAFF000EED
:101B4000E926020EEA22080EE926000EEA22EF50EC
:101B5000E66EB151B107EA6A7F0FE96E010EEA2223
:101B6000E552E750EF6EB151B107EA6A7F0FE96EB7
:101B7000010EEA22EF68B151B107EA6A7F0FE96E00
:101B8000010EEA22EF68C351C32BE66EB151B107D3
:101B9000EA6A7F0FE96E010EEA22E552E750EF6E26
:101BA000B151B107EA6A7F0FE96E010EEA22CC0E4D
:101BB000EF6EB151B107EA6A7F0FE96E010EEA22BA
:101BC000210EEF6EE66A33D1FE0EDB50EA6AD80FC3
:101BD000E96E020EEA22EF50400B01E180D0FE0ECA
:101BE000DB50EA6AD80FE96E020EEA22EF50080BCA
:101BF00001E120D1090E0201B225106E7F0E105CAA
:101C00006AE2B151B107EA6A7F0FE96E010EEA227A
:101C1000E4C2EFFFB151B107EA6A7F0FE96E010E2E
:101C2000EA22E3C2EFFFFE0EDB50100DF3CFE9FF17
:101C3000F4CFEAFF000EE926020EEA22020EE926A0
:101C4000000EEA22010EE926000EEA22EF50E66EAF
:101C5000B151B107EA6A7F0FE96E010EEA22E5523F
:101C6000E750EF6EFE0EDB50100DF3CFE9FFF4CF1F
:101C7000EAFF000EE926020EEA22020EE926000E15
:101C8000EA22EF50E66EB151B107EA6A7F0FE96EC2
:101C9000010EEA22E552E750EF6EFE0EDB50100D0A
:101CA000F3CFE9FFF4CFEAFF000EE926020EEA22A5
:101CB000010EE926000EEA22EF50E66EB151B1079F
:101CC000EA6A7F0FE96E010EEA22E552E750EF6EF5
:101CD000FE0EDB5076D0B26B7E0EB16FABD0FE0E37
:101CE000DB50EA6AD80FE96E020EEA22EF50080BC9
:101CF00001E0A2D09FD00201B151B107EA6A7F0F83
:101D0000E96E010EEA22E4C2EFFFB151B107EA6ABF
:101D10007F0FE96E010EEA22E3C2EFFFEA51100DD8
:101D2000F3CFE9FFF4CFEAFF000EE926020EEA2224
:101D3000020EE926000EEA22010EE926000EEA2232
:101D4000EF50E66EB151B107EA6A7F0FE96E010EFE
:101D5000EA22E552E750EF6EEA51100DF3CFE9FFAA
:101D6000F4CFEAFF000EE926020EEA22020EE9266F
:101D7000000EEA22EF50E66EB151B107EA6A7F0F1A
:101D8000E96E010EEA22E552E750EF6EEA51100DBE
:101D9000F3CFE9FFF4CFEAFF000EE926020EEA22B4
:101DA000010EE926000EEA22EF50E66EB151B107AE
:101DB000EA6A7F0FE96E010EEA22E552E750EF6E04
:101DC000EA51100DF3CFE9FFF4CFEAFF000EE92648
:101DD000020EEA22EF50E66EB151B107EA6A7F0FB8
:101DE000E96E010EEA22E552E750EF6EC351C32BB4
:101DF000E66EB151B107EA6A7F0FE96E010EEA2281
:101E0000E552E750EF6EB151B107EA6A7F0FE96E14
:101E1000010EEA22880EEF6EB151B107EA6A7F0F18
:101E2000E96E010EEA22610EEF6E010EE66E3CD8FD
:101E3000E55202D0FF0E03D00201C451C42BE5527B
:101E4000E552E7CFD9FF12000201E79DF298E66A5A
:101E5000010EE66EEAD8E552E5520201D693D68528
:101E6000E26BF2881200D9CFE6FFE1CFD9FFE6524C
:101E7000DF6ADF50106E116A0A0E105C000E1158F6
:101E80000DE2DF50EA6AD80FE96E020EEA22EF5047
:101E9000010B02E1DF5003D0DF2AEBD7FF0EE55242
:101EA000E552E7CFD9FF1200D9CFE6FFE1CFD9FF46
:101EB000020EE1260201D6A704D081B0FBD7F28240
:101EC000F9D77E0ED880B155E66E000EE66EE66A52
:101ED00067D8E552E552E5527F0E0201B225FF0FA9
:101EE000D880B155E66E010EE66EE66A59D8E55225
:101EF000E552E552020EDF6E7E0E0201B15D12E286
:101F0000B12BB151EA6A7F0FE96E010EEA22EF5060
:101F1000E66EDF50DF2AE66EE66A42D8E552E55209
:101F2000E552EAD77E0EB16F010EDB6A0201B251B3
:101F3000F36E010EDBCFF4FFF350F45C14E2010EFC
:101F4000DB50EA6A7F0FE96E010EEA22EF50E66E7F
:101F5000DF50DF2AE66EE66A23D8E552E552E55205
:101F6000010EDB2AE3D7B26BD687FE0EDB0403E15A
:101F7000D689050E02D0D699010EE66E370EE66EB2
:101F800054D8E552E552010E106E020EE15C02E2F9
:101F9000E16AE552E16E1050E552E7CFD9FF120039
:101FA000D9CFE6FFE1CFD9FFE652F250100B01E0A6
:101FB000010EDF6EF2988B900000FD0EDBCF10F06B
:101FC000FE0EDBCF11F0030ED89011321032E80470
:101FD000FBE17F0E10148009E66EC6EC1FF0E5529F
:101FE000FD0EDBCF10F0FE0EDBCF11F0050ED8900A
:101FF00010361136E804FBE1E00E10141009E66E0D
:10200000C6EC1FF0E552FC0EDBCFE6FFC6EC1FF07E
:10201000E55200008B80DF50E8B0F288E8A0F2982B
:10202000E552E552E7CFD9FF1200D9CFE6FFE1CF65
:10203000D9FFE652F250100B01E0010EDF6EF2986C
:102040008B900000FE0EDBCFE6FFC6EC1FF0E552E2
:10205000FD0EDBCFE6FFC6EC1FF0E55200008B80E3
:10206000DF50E8B0F288E8A0F298E552E552E7CFF9
:10207000D9FF1200D9CFE6FFE1CFD9FF020EE1264A
:10208000F250100B01E0010EE76E010EE7CFDBFF0F
:10209000F2988B900000FE0EDBCFE6FFC6EC1FF03F
:1020A000E552D7EC1FF0DF6E00008B80010EDB5095
:1020B000E8B0F288E8A0F298DF5000D0106E020E6F
:1020C000E15C02E2E16AE552E16E1050E552E7CFD1
:1020D000D9FF1200D9CFE6FFE1CFD9FF020EE126EA
:1020E000F250100B01E0010EE76E010EE7CFDBFFAF
:1020F000F2988B900000FD0EDBCF10F0FE0EDBCFD0
:1021000011F0030ED89011321032E804FBE17F0E7B
:102110001016000E1116800E1010E66EC6EC1FF0A1
:10212000E552FD0EDBCF10F0FE0EDBCF11F0050EF9
:10213000D89010361136E804FBE1E00E1014E66E7C
:10214000C6EC1FF0E552D7EC1FF0DF6E00008B806D
:10215000010EDB50E8B0F288E8A0F298DF5000D022
:10216000106E020EE15C02E2E16AE552E16E10508F
:10217000E552E7CFD9FF120012000201E7A53BD1DB
:10218000B251B22BEA6A7F0FE96E010EEA22610EAC
:10219000EF6EB251B22BEA6A7F0FE96E010EEA22AE
:1021A000880EEF6EC351C32BE66EB251B22BEA6AB2
:1021B0007F0FE96E010EEA22E552E750EF6EB25151
:1021C000B22BEA6A7F0FE96E010EEA22E5C2EFFF49
:1021D000B251B22BEA6A7F0FE96E010EEA22E6C223
:1021E000EFFFEA51100DF3CFE9FFF4CFEAFF000E45
:1021F000E926020EEA22020EE926000EEA22EF503C
:10220000E66EB251B22BEA6A7F0FE96E010EEA2246
:10221000E552E750EF6EEA51100DF3CFE9FFF4CF2E
:10222000EAFF000EE926020EEA22020EE926000E5F
:10223000EA22010EE926000EEA22EF50E66EB251C4
:10224000B22BEA6A7F0FE96E010EEA22E552E750EF
:10225000EF6EB251B22BEA6A7F0FE96E010EEA22ED
:10226000E3C2EFFFB251B22BEA6A7F0FE96E010EB3
:10227000EA22E4C2EFFFB251B22BEA6A7F0FE96EA5
:10228000010EEA22040EEF6EB251B22BEA6A7F0F02
:10229000E96E010EEA22060EEF6EB251B22BEA6A27
:1022A0007F0FE96E010EEA22EF68B251B22BEA6AA3
:1022B0007F0FE96E010EEA22EF68B251B22BEA6A93
:1022C0007F0FE96E010EEA22EF68B251B22BEA6A83
:1022D0007F0FE96E010EEA22EF68B251B22BEA6A73
:1022E0007F0FE96E010EEA22E5C2EFFFB251B22B79
:1022F000EA6A7F0FE96E010EEA22E6C2EFFFB251F1
:10230000B22BEA6A7F0FE96E010EEA22E3C2EFFF09
:10231000B251B22BEA6A7F0FE96E010EEA22E4C2E3
:10232000EFFFC451C42BE66EB251B22BEA6A7F0FA5
:10233000E96E010EEA22E552E750EF6EB251B22B80
:10234000EA6A7F0FE96E010EEA22EF6AB251B22B00
:10235000EA6A7F0FE96E010EEA22200EEF6EB2519B
:10236000B22BEA6A7F0FE96E010EEA22A4C2EFFFE8
:10237000B251B22BEA6A7F0FE96E010EEA22A5C2C2
:10238000EFFFB251B22BEA6A7F0FE96E010EEA222B
:10239000A6C2EFFFB251B22BEA6A7F0FE96E010EBF
:1023A000EA22A7C2EFFFB251B22BEA6A7F0FE96EB1
:1023B000010EEA22A8C2EFFFB251B22BEA6A7F0FE8
:1023C000E96E010EEA22A9C2EFFFB251B22BEA6A0E
:1023D0007F0FE96E010EEA22AAC2EFFFB251B22BC3
:1023E000EA6A7F0FE96E010EEA22ABC2EFFF010E2F
:1023F000E66E5ADDE5521200D9CFE6FFE1CFD9FFF4
:10240000020EE126FE0EDB50E76E010EE7CFDBFF8A
:10241000DF6A0A0EDF5C01E3B3D0FE0EDB50FF087B
:1024200008E1DF50EA6AD80FE96E020EEA22EF9067
:10243000A5D0D950010FE96EDACFEAFFEF50010BBA
:1024400010E0DF50EA6AD80FE96E020EEA22EF5080
:10245000020B07E1DF50EA6AD80FE96E020EEA22AA
:10246000EF90D950010FE96EDACFEAFFEF50020B7F
:1024700010E0DF50EA6AD80FE96E020EEA22EF5050
:10248000040B07E1DF50EA6AD80FE96E020EEA2278
:10249000EF90D950010FE96EDACFEAFFEF50040B4D
:1024A00019E0DF50EA6AD80FE96E020EEA22EF5017
:1024B000080B10E1DF50EA6AD80FE96E020EEA223B
:1024C000EF50100B07E1DF50EA6AD80FE96E020EF9
:1024D000EA22EF90D950010FE96EDACFEAFFEF5010
:1024E000080B10E0DF50EA6AD80FE96E020EEA220C
:1024F000EF50100B07E0DF50EA6AD80FE96E020ECA
:10250000EA22EF90D950010FE96EDACFEAFFEF50DF
:10251000100B10E0DF50EA6AD80FE96E020EEA22D3
:10252000EF50200B07E1DF50EA6AD80FE96E020E88
:10253000EA22EF90D950010FE96EDACFEAFFEF50AF
:10254000200B10E0DF50EA6AD80FE96E020EEA2293
:10255000EF50200B07E0DF50EA6AD80FE96E020E59
:10256000EA22EF90D950010FE96EDACFEAFFEF507F
:10257000400BD950010FE96EEF50800BDF2A49D78D
:10258000020EE15C02E2E16AE552E16EE552E7CF5C
:10259000D9FF1200D9CFE6FFE1CFD9FF030EE12624
:1025A000FE0EDB5001E0BFD00201C5912FEC1FF001
:1025B00004C0D1F205C0D2F206C0D3F207C0D4F2F3
:1025C000010EDB6A020EDB6A02010B0EB26FE850ED
:1025D000B22BEA6A7F0FE96E010EEA22EF6AB2516E
:1025E000B22BEA6A7F0FE96E010EEA22100EEF6E3F
:1025F0000E0EF66E000EF76E0800F550E66EB25144
:10260000B22BEA6A7F0FE96E010EEA22E552E7502B
:10261000EF6E0F0EF66E000EF76E0800F550E66EC8
:10262000B251B22BEA6A7F0FE96E010EEA22E5523F
:10263000E750EF6E100EF66E000EF76E0800F550C4
:10264000E66EB251B22BEA6A7F0FE96E010EEA2202
:10265000E552E750EF6E110EF66E000EF76E0800B1
:10266000F550E66EB251B22BEA6A7F0FE96E010EA9
:10267000EA22E552E750EF6E120EF66E000EF76E8C
:102680000800F550E66EB251B22BEA6A7F0FE96E90
:10269000010EEA22E552E750EF6E130EF66E000EC1
:1026A000F76E0800F550E66EB251B22BEA6A7F0F62
:1026B000E96E010EEA22E552E750EF6E140EF66E57
:1026C000000EF76E0800F550E66EB251B22BEA6AC2
:1026D0007F0FE96E010EEA22E552E750EF6E150E0C
:1026E000F66E000EF76E0800F550E66EB251B22B92
:1026F000EA6A7F0FE96E010EEA22E552E750EF6EBB
:10270000E66A010EDBCFE6FF020EDBCFE6FFE5C295
:10271000E6FFE6C2E6FFD9EC08F0106E050EE15EBA
:1027200010500201C583030EE15C02E2E16AE5524A
:10273000E16EE552E7CFD9FF1200D9CFE6FFE1CF36
:10274000D9FFFE0EDB50EA6AD80FE96E020EEA22CC
:10275000EF50010B01E1EDD0FE0EDB50100DF3CF79
:10276000E9FFF4CFEAFF000EE926020EEA22080E86
:10277000E926000EEA22EF50E66EDFD8E5520201AC
:10278000E783E799FE0EDBCFEAF2DB50100DF3CFC3
:10279000E9FFF4CFEAFF000EE926020EEA22EF502D
:1027A000E66E030EE66E41DCE552E552FE0EDB50AE
:1027B000100DF3CFE9FFF4CFEAFF000EE926020E79
:1027C000EA22010EE926000EEA22EF50E66E050E1F
:1027D000E66E2BDCE552E552FE0EDB50100DF3CF1A
:1027E000E9FFF4CFEAFF000EE926020EEA22EECF5F
:1027F000E5F2EDCFE6F20101230E7F6FC80E806F88
:102800000201C351C32B0101816FFE0EDB50100D7D
:10281000F3CFE9FFF4CFEAFF000EE926020EEA2229
:10282000EFCF82F1FE0EDB50100DF3CFE9FFF4CFB6
:10283000EAFF000EE926020EEA22010EE926000E4A
:10284000EA22EFCF83F1FE0EDB50100DF3CFE9FF4C
:10285000F4CFEAFF000EE926020EEA22020EE92674
:10286000000EEA22EFCF84F1FE0EDB50100DF3CF05
:10287000E9FFF4CFEAFF000EE926020EEA22020E7B
:10288000E926000EEA22010EE926000EEA22EFCF29
:1028900085F1866987690E0EF66E000EF76E0800E8
:1028A000F5CF88F10F0EF66E000EF76E0800F5CF2B
:1028B00089F1100EF66E000EF76E0800F5CF8AF162
:1028C000110EF66E000EF76E0800F5CF8BF1120EAA
:1028D000F66E000EF76E0800F5CF8CF1130EF66E53
:1028E000000EF76E0800F5CF8DF1140EF66E000E97
:1028F000F76E0800F5CF8EF1150EF66E000EF76E2E
:102900000800F5CF8FF1010E906F800E916F0201DC
:10291000130EB26F010EE66E54EC0FF0E5522FEC81
:102920001FF004C0B6F205C0B7F206C0B8F207C087
:10293000B9F2E552E7CFD9FF1200D9CFE6FFE1CFD8
:10294000D9FFFE0EDBCFE9F2DB500209E66EE66A44
:10295000020EE66ED0EC0FF0E552E552E552040EA1
:10296000E66E6D0EE66E15EC10F0E552E552E66A85
:102970006D0EE66E15EC10F0E552E552E552E7CF2C
:10298000D9FF1200D9CFE6FFE1CFD9FFE652DF6AC7
:102990000A0EDF5C49E2DF50EA6AD80FE96E020EE8
:1029A000EA22EF50010B3EE0DF50EA6AD80FE96EF1
:1029B000020EEA22EF50200B01E0010E106EFE0E17
:1029C000DB50105C2FE1DF50100DF3CFE9FFF4CFA7
:1029D000EAFF000EE926020EEA22EECF10F0EFCF5A
:1029E00011F00201AF5110181DE1B05111181AE198
:1029F000DF50100DF3CFE9FFF4CFEAFF000EE92618
:102A0000020EEA22020EE926000EEA22EECF12F0B2
:102A1000EFCF13F0AD51121805E1AE51131802E1DA
:102A2000DF5003D0DF2AB4D7FF0EE552E552E7CFDF
:102A3000D9FF1200D9CFE6FFE1CFD9FF020EE12680
:102A4000DF6A0A0EDF5C3BE2DF50EA6AD80FE96E0C
:102A5000020EEA22EF50010B30E0010EDB6A080E95
:102A6000F36E010EDBCFF4FFF350F45C24E2DF5091
:102A7000100DF3CFE9FFF4CFEAFF000EE926020EB6
:102A8000EA22080EE926000EEA22010EDB50E924B4
:102A9000E96E000EEA20EA6EEFCF10F0010EDB5077
:102AA000EA6AA40FE96E020EEA22EF50105C05E11B
:102AB000010EDB2AD4D7DF5003D0DF2AC2D7FF0EA6
:102AC000106E020EE15C02E2E16AE552E16E105026
:102AD000E552E7CFD9FF1200D9CFE6FFE1CFD9FF0A
:102AE000E6520201ACA502D0A5DF06D0ACA705D006
:102AF000010EE66E47DFE552DF6EFF0EDF5C03E19D
:102B000033EC0FF0DF6EFF0EDF5C01E1C9D0DF5068
:102B1000EA6AD80FE96E020EEA22ACC2EFFF0201A8
:102B2000ACA59CD0DF50100DF3CFE9FFF4CFEAFF46
:102B3000000EE926020EEA22080EE926000EEA221D
:102B4000A4C2EFFFDF50100DF3CFE9FFF4CFEAFF8F
:102B5000000EE926020EEA22080EE926000EEA22FD
:102B6000010EE926000EEA22A5C2EFFFDF50100D8C
:102B7000F3CFE9FFF4CFEAFF000EE926020EEA22C6
:102B8000080EE926000EEA22020EE926000EEA22CD
:102B9000A6C2EFFFDF50100DF3CFE9FFF4CFEAFF3D
:102BA000000EE926020EEA22080EE926000EEA22AD
:102BB000030EE926000EEA22A7C2EFFFDF50100D38
:102BC000F3CFE9FFF4CFEAFF000EE926020EEA2276
:102BD000080EE926000EEA22040EE926000EEA227B
:102BE000A8C2EFFFDF50100DF3CFE9FFF4CFEAFFEB
:102BF000000EE926020EEA22080EE926000EEA225D
:102C0000050EE926000EEA22A9C2EFFFDF50100DE3
:102C1000F3CFE9FFF4CFEAFF000EE926020EEA2225
:102C2000080EE926000EEA22060EE926000EEA2228
:102C3000AAC2EFFFDF50100DF3CFE9FFF4CFEAFF98
:102C4000000EE926020EEA22080EE926000EEA220C
:102C5000070EE926000EEA22ABC2EFFFACA712D0A6
:102C6000DF50100DF3CFE9FFF4CFEAFF000EE926A5
:102C7000020EEA22020EE926000EEA22ADC2EEFFA3
:102C8000AEC2EDFFDF50100DF3CFE9FFF4CFEAFF46
:102C9000000EE926020EEA22AFC2EEFFB0C2EDFF3F
:102CA000DF50E552E552E7CFD9FF1200D9CFE6FF5A
:102CB000E1CFD9FF030EE1268B94010EDB6A020EF1
:102CC000DB6A010EDBCF10F0020EDBCF11F02C0E11
:102CD000105C010E115806E2010EDB2A020EF1E330
:102CE000DB2AEFD78B84010EDB6A020EDB6A010E52
:102CF000DBCF10F0020EDBCF11F02C0E105C010EBA
:102D0000115806E2010EDB2A020EF1E3DB2AEFD7AF
:102D1000070EE66E550EE66E15EC10F0E552E55224
:102D2000540EE66E3AEC10F0E552DF6E070EDF143B
:102D3000F7E1010EDB6A020EDB6A010EDBCF10F059
:102D4000020EDBCF11F0E80E105C030E115806E204
:102D5000010EDB2A020EF1E3DB2AEFD7010EE66E4D
:102D60001B0EE66E15EC10F0E552E552E3C2E6FFED
:102D7000070EE66E15EC10F0E552E552E4C2E6FFF0
:102D8000090EE66E15EC10F0E552E552E5C2E6FFDD
:102D9000030EE66E15EC10F0E552E552E6C2E6FFD2
:102DA000050EE66E15EC10F0E552E552DF6A080EEE
:102DB000DF5C13E2DF50F76A0E0FF66E000EF722AB
:102DC0000800F550E66EDF50E8240B0FE66E15ECB8
:102DD00010F0E552E552DF2AEAD7020EE66EE66A07
:102DE000E66ED0EC0FF0E552E552E552010EE66ECC
:102DF000E66E020EE66ED0EC0FF0E552E552E552BB
:102E0000800EE66E020EE66EE66ED0EC0FF0E55236
:102E1000E552E552E66A030EE66E020EE66ED0EC6F
:102E20000FF0E552E552E552900EE66E060EE66EA4
:102E3000020EE66ED0EC0FF0E552E552E552800E40
:102E4000E66E070EE66E020EE66ED0EC0FF0E5526F
:102E5000E552E552100EE66E080EE66E020EE66EC4
:102E6000D0EC0FF0E552E552E552010EE66E200E71
:102E7000E66E020EE66ED0EC0FF0E552E552E5523A
:102E8000800EE66E750EE66E15EC10F0E552E5521A
:102E9000400EE66E7D0EE66E15EC10F0E552E55242
:102EA000600EE66E7F0EE66E15EC10F0E552E55210
:102EB000980EE66E310EE66E15EC10F0E552E55216
:102EC000950EE66E5D0EE66E15EC10F0E552E552DD
:102ED0000F0EE66E020EE66E6AEC10F0E552E55259
:102EE000DF6EE00EDF14A008F3E1E60EE66E650E7D
:102EF000E66E15EC10F0E552E552240EF66E400E2B
:102F0000F76E0800F550E66E18DDE552030EE15C41
:102F100002E2E16AE552E16EE552E7CFD9FF120025
:102F2000D9CFE6FFE1CFD9FFE6520201E369E469B8
:102F3000E569E669BBDE0201D66BD76BD685D69311
:102F4000E668FCEC11F0E5520201E795E793E79F94
:102F5000C56B25EC1FF002017E0EB16FB26BF292D1
:102F6000F28881A0F282E552E552E7CFD9FF120044
:102F70000201D68D8B92040EE66E550EE66E15ECB0
:102F800010F0E552E552800EE66E450EE66E15EC49
:102F900010F0E552E552600EE66E1B0EE66E15EC83
:102FA00010F0E552E552800EE66E6B0EE66E15EC03
:102FB00010F0E552E5521200D9CFE6FFE1CFD9FF7C
:102FC000090EE1268B822FEC1FF0010E04C0DBFFFF
:102FD000020E05C0DBFF030E06C0DBFF040E07C0B8
:102FE000DBFF2FEC1FF0050E04C0DBFF060E05C053
:102FF000DBFF070E06C0DBFF080E07C0DBFF050E78
:10300000DBCF14F0060EDBCF15F0070EDBCF16F08A
:10301000080EDBCF17F0D950010FE96EDACFEAFFC7
:10302000EE50145C106EEE501558116EEE5016589E
:10303000126EEE501758136E050E10C0DBFF060E11
:1030400011C0DBFF070E12C0DBFF080E13C0DBFF51
:10305000D950050FE96EDACFEAFFD8806A0EEE5438
:10306000180EEE54000EEE54000EEE5408E3620EFD
:10307000E66E3AEC10F0E552DF6EDFACB2D72FEC23
:103080001FF0050E04C0DBFF060E05C0DBFF070EB8
:1030900006C0DBFF080E07C0DBFF050EDBCF14F018
:1030A000060EDBCF15F0070EDBCF16F0080EDBCFD8
:1030B00017F0D950010FE96EDACFEAFFEE50145C39
:1030C000106EEE501558116EEE501658126EEE50EE
:1030D0001758136E050E10C0DBFF060E11C0DBFF84
:1030E000070E12C0DBFF080E13C0DBFFD950050F1F
:1030F000E96EDACFEAFFD8806A0EEE54180EEE546D
:10310000000EEE54000EEE540DE30F0EE66E020EAE
:10311000E66E6AEC10F0E552E552DF6EE00EDF1469
:10312000A008ADE10201D69D090EE15C02E2E16A70
:10313000E552E16EE552E7CFD9FF1200D8CFE4FFA8
:10314000E0CFE4FFE46EDACFE4FFE2CFDAFFE9CFCD
:10315000E4FFEACFE4FFF6CFE4FFF7CFE4FFF5CFDB
:10316000E4FFF3CFE4FFF4CFE4FFFACFE4FF00EE97
:1031700000F0100EE80403E3EECFE4FFFBD700EE0F
:1031800010F0080EE80403E3EECFE4FFFBD7E652AD
:10319000D9CFE6FFE1CFD9FF020EE12659EC1AF0B4
:1031A000F250100B46E0F250020B43E0F292620E36
:1031B000E66E3AEC10F0E552DF6ED9CFE9FFDACFD8
:1031C000EAFFEF50010B21E00201D6970201F86BF4
:1031D0000201D651200B03E1D651100B13E0480E2B
:1031E000E66E3AEC10F0E552E76E010EE7CFDBFF3A
:1031F000D950010FE96EDACFEAFFEF50010B02E17F
:103200000201D6990201D69B0CD0D9CFE9FFDACFC3
:10321000EAFFEF50080B05E00201D6A502D0D681E7
:1032200008D0010EE66E1B0EE66E15EC10F0E552AE
:10323000E552F2A409D0F2AA07D0F2940101FE2BC4
:10324000FE5102E10101FF2BF250080B04E0F250A5
:10325000010B01E0F290020EE15C02E2E16AE5524C
:10326000E16EE552E7CFD9FFE55200EE17F0080E08
:10327000E80403E3E5CFEDFFFBD700EE0FF0100EFF
:10328000E80403E3E5CFEDFFFBD7E5CFFAFFE5CF99
:10329000F4FFE5CFF3FFE5CFF5FFE5CFF7FFE5CF8F
:1032A000F6FFE5CFEAFFE5CFE9FFE5CFDAFFE5502E
:0A32B000E5CFE0FFE5CFD8FF1000E6
:0632BA00D9CFE6FFE1CFD1
:1032C000D9FFFD0EDBCF10F0FE0EDBCF11F0113475
:1032D00007E210503F08000E115402E23F0E0FD0DB
:1032E000FD0EDBCF10F0FE0EDBCF11F0D8901150A9
:1032F00004E6210E105C000E115807E2210EF36E59
:10330000FD0EF3CFDBFFFE0EDB6AFD0EDBCF10F010
:10331000FE0EDBCF11F0E80E1102F3CF11F0030E19
:103320001002F3501126E80E1002F450112611C0BD
:10333000F4FFE552E7CFD9FF1200F09619EC20F028
:103340000201F56BF66B818689821200F09619EC0A
:1033500020F00201F56BF66B819689921200D9CFAD
:10336000E6FFE1CFD9FFA69EFE0EDB50A96EA68038
:10337000A850E552E7CFD9FF1200D9CFE6FFE1CF41
:10338000D9FFE6520201F75101E07BD002010B0E9A
:10339000B26FE850B22BEA6A7F0FE96E010EEA22A3
:1033A000120EEF6EB251B22BEA6A7F0FE96E010E78
:1033B000EA22E80EEF6EB251B22BEA6A7F0FE96E95
:1033C000010EEA223C0EEF6EB251B22BEA6A7F0F79
:1033D000E96E010EEA22E4C2EFFFB251B22BEA6AB3
:1033E0007F0FE96E010EEA22E3C2EFFFDF6ADFCF53
:1033F00010F0080EE76E1018E8AE02D0E73402D0E5
:10340000E750105C18E2DFCFF6FFF76AF6BEF76808
:103410000E0EF626000EF7220800F550E66EB251A9
:10342000B22BEA6A7F0FE96E010EEA22E552E750FD
:10343000EF6EDF2ADCD7B251B22BEA6A7F0FE96E5A
:10344000010EEA223E0EEF6E0201AD6BAE6BE66A34
:10345000ADC2E6FFAEC2E6FFE5C2E6FFE6C2E6FFAA
:10346000D9EC08F0106E050EE15E1050880EE66E85
:103470003D0EE66EE7EC1CF0E552E5520201010E4E
:10348000F76FE552E552E7CFD9FF12000201AD6BAD
:10349000AE6BE66AADC2E6FFAEC2E6FFE5C2E6FF8E
:1034A000E6C2E6FFD9EC08F0106E050EE15E1050A2
:1034B0001200F0A014D0F0900201000ED880F55553
:1034C000000EF6550CE2CDB002D0CD809D80F5C245
:1034D000E6FFF6C2E6FF93EC1FF0E552E5529E5080
:1034E000010B0FE0CD50010B0CE09D50010B09E0EA
:1034F0009E90818689821E0EE66EF8EC1FF0E552E2
:1035000081961200D9CFE6FFE1CFD9FF080EE12660
:10351000B3C2DEFFB4C2DDFF0201B32B000EB42341
:10352000B3C2E9FFB4C2EAFFB32BB423EF5001E109
:10353000B4D0120A01E0B7D0B3C2E9FFB4C2EAFFC7
:10354000B32B000EB423EF50880A32E00F0A19E0C3
:10355000010A01E0A8D0FADE02010B0EB26FE850BA
:10356000B22BEA6A7F0FE96E010EEA22120EEF6EAD
:10357000B251B22BEA6A7F0FE96E010EEA22860E83
:1035800015D0DBDE02010B0EB26FE850B22BEA6AF7
:103590007F0FE96E010EEA22120EEF6EB251B22BCE
:1035A000EA6A7F0FE96E010EEA22870EEF6E73D092
:1035B000060EDB6A070EDB6AB3C2E9FFB4C2EAFF9C
:1035C000B32B000EB423040EEFCFDBFFB3C2E9FF31
:1035D000B4C2EAFFB32B000EB423030EEFCFDBFF20
:1035E000050EDB6AD950030FE66E000EDA20E66E98
:1035F000F6EC1DF0E552E552060EF3CFDBFF070EA9
:10360000F4CFDBFFD950060FE96EDACFEAFFEE50B8
:10361000ED1010E0060EDBCFE6FF070EDBCFE6FF76
:103620004CDEE552E552F3CFF5F2F4CFF6F2F08638
:10363000CD809D807E0EE66E3D0EE66EE7EC1CF0C2
:10364000E552E55202010B0EB26FE850B22BEA6A66
:103650007F0FE96E010EEA22120EEF6EB251B22B0D
:10366000EA6A7F0FE96E010EEA22880EEF6EB25110
:10367000B22BEA6A7F0FE96E010EEA22040EDBCF5D
:10368000EFFFB251B22BEA6A7F0FE96E010EEA2218
:10369000030EDBCFEFFFFADE06D0B3C2E9FFB4C200
:1036A000EAFFEF50300A24EC0FF0080EE15C02E272
:1036B000E16AE552E16EE552E7CFD9FF1200D9CFBA
:1036C000E6FFE1CFD9FF120EE1260C0EDB68020EF9
:1036D000DB6A010EDB6AE0EC1CF046D9580EE66EA0
:1036E0003D0EE66EE7EC1CF0E552E55290EC17F06B
:1036F00089801CEC00F089900201E7A534D03DDE02
:103700000201E7BDFFDEDF6A080EDF5C1BE2DFCFF0
:10371000E6FF25DEE552E66EDF50EA6AA40FE96EA9
:10372000020EEA22E552E750EF6EDF50EA6AA40F7C
:10373000E96E020EEA22EF50E66E11EC1DF0E55242
:10374000DF2AE2D70201E8A109D1B8EC17F0ACA258
:10375000FED7D180F290F286F296D190DCEC17F091
:103760000201E78FFBD0E751010B01E0F7D0E751F1
:10377000020B01E0F3D0E751200B01E0EFD00D0E7A
:10378000DB680F0EDB6A0E0EDB6A0A0EF36E0E0E9E
:10379000DBCFF4FFF350F45C72E20E0EDB50EA6A0A
:1037A000D80FE96E020EEA22EF50010B65E00E0E13
:1037B000DB50EA6AD80FE96E020EEA22EF50200BC6
:1037C0005BE10E0EDB50100DF3CFE9FFF4CFEAFF03
:1037D000000EE926020EEA22080EE926000EEA2271
:1037E000020EE926000EEA22EF504D0845E10E0ECA
:1037F000DB50100DF3CFE9FFF4CFEAFF000EE9260E
:10380000020EEA22080EE926000EEA22040EE9263C
:10381000000EEA22EF50800B2FE00E0EDB50100D51
:10382000F3CFE9FFF4CFEAFF000EE926020EEA2209
:10383000080EE926000EEA22EE52EFCF10F00F0E2E
:10384000DB50105C19E30E0EDB50E76E0D0EE7CF78
:10385000DBFF0E0EDB50100DF3CFE9FFF4CFEAFFD4
:10386000000EE926020EEA22080EE926000EEA22E0
:10387000EE520F0EEFCFDBFF0E0EDB2A86D70D0EBA
:10388000DB50FF0822E1010EDBCFF3FFDB2AF35010
:10389000030806E2100EE66EFCEC11F0E5525ED075
:1038A000100EE66EFCEC11F0E5520201E781E787AD
:1038B0000201C26B2FEC1FF004C0B6F205C0B7F2D4
:1038C00006C0B8F207C0B9F249D00D0EDBCFE6FF53
:1038D0009DEC13F0E5528982100EDB6A110EDB6A53
:1038E000100EDBCF10F0110EDBCF11F0200E105CAC
:1038F0004E0E115806E2100EDB2A110EF1E3DB2A00
:10390000EFD78992100EDB6A110EDB6A100EDBCF47
:1039100010F0110EDBCF11F0200E105C4E0E11587E
:1039200006E2100EDB2A110EF1E3DB2AEFD78982C3
:10393000100EDB6A110EDB6A100EDBCF10F0110ED9
:10394000DBCF11F0200E105C4E0E115806E2100E67
:10395000DB2A110EF1E3DB2AEFD78992640EE66EC3
:10396000AFEC1FF0E552C4D6040E896EF80E926ECD
:10397000030E936E8A6A816A956A8C6A836AFD0E69
:103980008B6ED00E946EC00EC76E200EC66E8B80EE
:103990009490F292D190F26AF16AF06AD08EF28C31
:1039A000F28EF19CF19EF086F08CF19AF090819667
:1039B000450EE66E72EC1FF0E5529F809E9012005D
:1039C000200EAC6E900EAB6E020EAF6E1200D9CF11
:1039D000E6FFE1CFD9FFE652FD0EDBCFF6FFDB2A93
:1039E000FE0EDBCFF7FF01E3DB2A0800F550DF6EA8
:1039F000DF5005E0DFCFE6FF07D8E552EDD7E5520F
:103A0000E552E7CFD9FF1200D9CFE6FFE1CFD9FFCA
:103A1000ACA2FED7FE0EDB50AD6EE552E7CFD9FF6C
:103A20001200D9CFE6FFE1CFD9FFE652FE0EDB5000
:103A3000DF6EFE0EDB380F0B0F0BE76EFE0EE7CFCF
:103A4000DBFFDB50F76A060FF66E400EF722080028
:103A5000F550E66ED9DFE5520F0EDF14E76EFE0E6D
:103A6000E7CFDBFFDB50F76A060FF66E400EF7225A
:103A70000800F550E66EC8DFE552E552E552E7CFA3
:103A8000D9FF1200D9CFE6FFE1CFD9FF0A0E106EA1
:103A90000C6EFE0EDBCF07F0EAEC1FF00750F76A62
:103AA000060FF66E400EF7220800F550E66EACDF0A
:103AB000E5520A0E106E0C6EFE0EDBCF07F0EAEC3C
:103AC0001FF00350F76A060FF66E400EF72208004B
:103AD000F550E66E99DFE552E552E7CFD9FF1200C7
:103AE000D9CFE6FFE1CFD9FF020EE126010EDB6A56
:103AF000FC0EDBCFF3FFDB06F35000091FE09EAAAC
:103B0000FED7AE50DF6E0D0EDF5C18E00A0EDF5CF4
:103B100015E0010EDB2AFD0EDBCFE9FFDB2AFE0EEE
:103B2000DBCFEAFF01E3DB2ADFCFEFFFFD0EDBCFC8
:103B3000E9FFFE0EDBCFEAFFEF6ADAD7010EDB50BA
:103B4000106E020EE15C02E2E16AE552E16E105095
:103B5000E552E7CFD9FF1200ABA202D0AB98AB88F9
:103B6000AE501200D9CFE6FFE1CFD9FF020EE12619
:103B7000DE6ADD6A9EBA03D0F36AF46A2DD0FD0EC8
:103B8000DBCFE9FFFE0EDBCFEAFFEF500D081CE0B4
:103B9000FD0EDBCFE9FFFE0EDBCFEAFFEF500A0898
:103BA00013E0DADFE66EFD0EDBCFE9FFDB2AFE0E67
:103BB000DBCFEAFF01E3DB2AE552E750EF6EDF2AB5
:103BC000010EDDE3DB2ADBD7DECF10F0DDCF11F015
:103BD00010C0F3FF11C0F4FF020EE15C02E2E16AE3
:0C3BE000E552E16EE552E7CFD9FF12007C
:043BEC00FF0EE3CF16
:103BF000EAFFE552FF0EE3CFE9FFE552E66AE66A27
:103C0000D9CFE6FFDACFE6FFFC0EE124D96EFF0E36
:103C1000E220DA6EE66AE66AE66A200EEF5C06E00B
:103C2000090EEF5C03E0EF6603D03FD0EE50F5D70E
:103C30002D0EEF5C03E1FF0EE32A03D02B0EEF5CA9
:103C400001E1EE502F0EEF6424D03A0EEF6021D048
:103C5000D890F90EE336FA0EE336FD0EDECFE3FF21
:103C6000FE0EDDCFE3FFD890F90EE336FA0EE33611
:103C7000D890F90EE336FA0EE336FD0EE350DE2659
:103C8000FE0EE350DD22300EEE5CDE26000EDD225D
:103C9000D9D7FF0EE3CFE8FFE85207E0F90EE31EA5
:103CA000E32AFA0ED8B4E306E31EE552E552E552E4
:103CB000FF0EE3CFDAFFE552FF0EE3CFD9FFE55267
:103CC000E1CFE9FFE2CFEAFFED52ED52EECFF3FF95
:063CD000EFCFF4FF12002B
:0A3CD60044454255473E2053686FF5
:103CE0007274416464726573733A200044454255AE
:103CF000473E2050414E49443A2000202E2E2E0DA2
:103D00000A0044454255473E205573616E646F205A
:103D100043616E616C3A20000D0A004A6F696E20A3
:103D2000746865206E6574776F726B20737563635A
:103D300065737366756C6C790D0A00200D0A00447A
:103D4000454255473E2053686F7274204164647247
:103D50006573733A200D0A0044454255473E205B87
:103D6000737562204D61696E5D20426F61726449B6
:103D70006E6974204F4B202E2E2E0A0D2000416AB2
:103D80007573746F750D0A00656E76696F207368C0
:103D90006F727420616464722070726F2070616E43
:0C3DA00020636F6F72642E2E2E0D0A003F
:043DAC001E0EF66E83
:103DB000000EF76E000EF86E02010900F550F06F6C
:103DC0000900F550F16F03E1F06701D03DD0090023
:103DD000F550EB6F0900F550EC6F0900F550ED6FF1
:103DE00009000900F550E96E0900F550EA6E090076
:103DF00009000900F550EE6F0900F550EF6F09005A
:103E00000900F6CFF2F2F7CFF3F2F8CFF4F2EBC2FB
:103E1000F6FFECC2F7FFEDC2F8FF0201EE5302E13C
:103E2000EF5307E00900F550EE6EEE07F8E2EF07FA
:103E3000F9D7F2C2F6FFF3C2F7FFF4C2F8FF0201AE
:0A3E4000F007000EF15BBFD712007F
:063E4A00030ED56EF184A9
:103E5000F294F28AD58E0101FE6BFF6B1200D9CF6E
:103E6000E6FFE1CFD9FF040EE126F29A020EDB6AEB
:103E7000030EDB6AD650DF6E010ED7CFDBFFF2A454
:103E80000BD00A0EDF5C08E2020EDB2AFF0E0101F6
:103E9000FE5D02E1030EDB2A020EDBCFE7FF01012C
:103EA000FE51E726020EE7CFDBFF030EDBCFE7FF75
:103EB000FF51E726030EE7CFDBFFF28ADECF04F0E7
:103EC000DECF05F0DECF06F0DDCF07F0DD52DD52AC
:103ED000040EE15C02E2E16AE552E16EE552E7CFF1
:043EE000D9FF1200F4
:0C3EE400D9CFE6FFDACFE6FFE1CFD9FF2F
:103EF000E2CFDAFFFD0EDB507E0BCD6EFD0EDBACAC
:103F000002D0CD8E01D0CD9ECF6ACE6A9E90DBAE20
:103F100002D09D8001D09D90CD80E552E5CFDAFFA3
:063F2000E7CFD9FF1200FB
:0A3F2600D9CFE6FFDACFE6FFE1CFC6
:103F3000D9FFE2CFDAFFE652E652FC0EDBCFDEFF1E
:103F4000DBCFDDFF010EDB50CF6EDF50CE6EE552D2
:0E3F5000E552E552E5CFDAFFE7CFD9FF1200C8
:023F5E00FF0E54
:103F6000E350196EEF0E01D0F30EE76EE72EB6EFB9
:103F70001FF00C0E186EE76AE72EBCEF1FF0182E2C
:0C3F8000BBEF1FF0192EB4EF1FF0120071
:043F8C00D9CFE6FFA4
:103F9000E1CFD9FF9E96C69EFE0EDB50C96EC6BE0F
:103FA000FAD79EA6FED7E552E7CFD9FF1200E66A00
:083FB000EDDFE552C9501200DB
:083FB8001DEE00F02DEE00F0FB
:103FC000F86A0F9CD6EC1EF003EC00F05FEC1BF0DF
:043FD000FBD7120009
:0C3FD400036A080EE76ED890073603362B
:103FE0000C50035C02E3036E072AE72EF7D712009A
:103FF000FF0EE350E84E1200000000D000D000D0C9
:06400000E82EFAD71200C1
:0A40060030313233343536373839A3
:0640100041424344454615
:0A40160000EE00F00F0EEE6AEA6201
:04402000FDD71200B6
:0C402400E0436F6D70616E7920414243F3
:01403000008F
:01403100008E
:06403200CD909D901200EC
:0340380000000085
:020000040030CA
:0100010002FC
:010002001FDE
:010003000AF2
:01000500807A
:010006008178
:0200000400F00A
:080000009378563412A30400AA
:020010000000EE
:00000001FF
